:100000000C9434000C9449000C9449000C94490061
:100010000C9449000C9449000C9449000C9449003C
:100020000C9449000C9449000C9449000C9449002C
:100030000C9449000C9449000C9449000C9449001C
:100040000C9449000C9449000C9449000C9449000C
:100050000C9449000C9449000C9449000C944900FC
:100060000C9449000C94490011241FBECFEFD8E036
:10007000DEBFCDBF11E0A0E0B1E0E0E1F8E002C0FA
:1000800005900D92A034B107D9F70E947C020C9420
:1000900006040C9400002F923F924F925F926F9251
:1000A0007F928F929F92AF92BF92CF92DF92EF9208
:1000B000FF920F931F93CF93DF93CDB7DEB72C97AB
:1000C0000FB6F894DEBF0FBECDBF4B015C015A875F
:1000D0004987190100E011E01C861B86C12CD12C38
:1000E000760120E030E440E050E02D833E834F83F2
:1000F0005887B7FE05C044244A94542C320104C0EA
:10010000412C512C32014394EB85A70196010E2E10
:1001100004C055954795379527950A94D2F7C301A2
:10012000B2010E94ED022D813E814F815885261B30
:10013000370B480B590B29833A834B835C832D8102
:100140003E814F81588504C0559547953795279531
:10015000EA95D2F7C301B2010E94ED02C60ED71E86
:10016000E81EF91EF801A191B1918F01A30192013E
:100170000E940903861A970AA80AB90A8EE191E03B
:100180000E94B20149805A806B807C80770C4408C1
:10019000542C320129813A814B815C81642D742D6C
:1001A000842D942D0E94C50182E291E00E94B2014B
:1001B00084E291E00E94B20126013701770C4408E5
:1001C000542C32019601A701642D742D842D942D99
:1001D0000E94C50182E291E00E94B20188E291E0B2
:1001E0000E94B20124013501770C4408542C3201DD
:1001F0009401A501642D742D842D942D0E94C501B8
:100200008CE291E00E94B2012B853C852F5F3F4F2D
:100210003C872B872E30310549F089819A81AB814B
:10022000BC818D839E83AF83B88763CFADEDB6E28B
:1002300029813A814B815C810E940903DC01CB0159
:100240002EE0B595A795979587952A95D1F7F10159
:1002500080839183A283B383ADEDB6E2A7019601BB
:100260000E940903DC01CB013EE0B595A795979567
:1002700087953A95D1F7E985FA8580839183A283A2
:10028000B3832C960FB6F894DEBF0FBECDBFDF91BF
:10029000CF911F910F91FF90EF90DF90CF90BF9083
:1002A000AF909F908F907F906F905F904F903F9016
:1002B0002F9008951092C50089E18093C400E0EC6E
:1002C000F0E080818D7F808388E98093C10086E0A3
:1002D0008093C20008959091C00095FFFCCF809359
:1002E000C6000895CF93DF93C82F64E60E94FD02F5
:1002F000D92F805D0E946B012AE08C2F622F0E9413
:10030000FD020E94FD0280E3890F0E946B0180E3E1
:100310008D0FDF91CF910C946B01EF92FF920F93B1
:100320001F93CF93DF938C01CFE0D0E0EE24E394D2
:10033000F12CC7010C2E02C0880F991F0A94E2F716
:1003400080239123892B11F081E301C080E30E9477
:100350006B01219770F7DF91CF911F910F91FF9063
:10036000EF9008950F931F93CF938C01C0E0F80195
:10037000EC0FF11D8081882321F00E946B01CF5F7B
:10038000F6CFCF911F910F9108952F923F924F92E8
:100390005F926F927F928F929F92AF92BF92CF9215
:1003A000DF92EF92FF920F931F93CF93DF93CDB71E
:1003B000DEB76D970FB6F894DEBF0FBECDBF290133
:1003C0003A014B011C01A0E00E94EB0339F480E3E9
:1003D000898321E030E03B8F2A8F68C0A0E00E9433
:1003E000EB0374F48DE28983822D0E94A40329011A
:1003F0003A014B011C0181E090E09F8B8E8B02C083
:100400001F8A1E8AA1E0B0E0AC0FBD1FEE89FF89F4
:10041000AE0FBF1FB98FA88FBD8FAC8F8E899F89FC
:1004200001969B8F8A8F8AE0A82EB12CC12CD12CEB
:10043000E12CF12C00E010E09201A301B401C10114
:100440000E941403205DAC8DBD8D2D93BD8FAC8FAC
:100450009201A301B401C1010E94160329013A01CE
:100460004B011C01A0E00E94EB0329F02A8D3B8D7B
:100470003F8B2E8BD3CF9E012F5F3F4FEE89FF899D
:10048000E20FF31FAF01421B530B888D998D821B26
:10049000930B8417950754F4A88DB98D8C91908196
:1004A0009D93B98FA88F80833197ECCFE1E0F0E086
:1004B000EC0FFD1F2A8D3B8DE20FF31F1082CE0142
:1004C00001960E94B2016D960FB6F894DEBF0FBE82
:1004D000CDBFDF91CF911F910F91FF90EF90DF90F3
:1004E000CF90BF90AF909F908F907F906F905F90D4
:1004F0004F903F902F900895CF92DF92EF92FF920E
:10050000CF93DF93CDB7DEB728970FB6F894DEBF51
:100510000FBECDBF0E945A018FE291E00E94B2014E
:1005200020E33EE440E050E060E070E080E090E0F6
:100530000E94C5018CE291E00E94B2019E012F5FF2
:100540003F4FAE014B5F5F4F60E37EE480E090E0A1
:100550000E944B0087E391E00E94B20189819A8159
:10056000AB81BC816C017D01FF0CCC08DC2C7601D9
:100570009C01AD016C2D7C2D8C2D9C2D0E94C50104
:1005800082E291E00E94B2018BE391E00E94B2010D
:100590008D819E81AF81B8856C017D01FF0CCC08F7
:1005A000DC2C76019C01AD016C2D7C2D8C2D9C2DBD
:1005B0000E94C5018CE291E00E94B20180E090E0CF
:1005C00028960FB6F894DEBF0FBECDBFDF91CF9156
:1005D000FF90EF90DF90CF900895DB018F939F9372
:1005E0000E940903BF91AF91A29F800D911DA39F0F
:1005F000900DB29F900D11240895991B79E004C0CD
:10060000991F961708F0961B881F7A95C9F7809551
:1006100008950E94F703A59F900DB49F900DA49F8D
:10062000800D911D11240895689401C0E894F92F5C
:10063000F12B12F00C944803A0E0B0E0E2E2F3E00A
:100640000C94BA03092E059422F40E94A4031123EA
:1006500092F4F0E80F26FFEFE094F09400951095E7
:10066000B094C094D094A194BF0ACF0ADF0AEF0AD5
:10067000FF0A0F0B1F0B0E94530307FC0E94A403E9
:10068000CDB7DEB7ECE00C94D603689401C0E894D3
:100690008F929F92CF93DF930E945303DF91CF916C
:1006A0009F908F90089588249924F401E401B0E488
:1006B0009F93AA279A158B049C04ED05FE05CF0590
:1006C000D007A10798F4AD2FDC2FCF2FFE2FE92DF7
:1006D000982C892E982F872F762F652F542F432FF4
:1006E000322F2227B85031F7BF9127C01B2EBF9160
:1006F000BB27220F331F441F551F661F771F881FFC
:10070000991F881C991CEE1FFF1FCC1FDD1FAA1FFD
:10071000BB1F8A149B04EC05FD05CE05DF05A00771
:10072000B10748F08A189B08EC09FD09CE09DF09DA
:10073000A00BB10B21601A94E1F62EF49401AF01E5
:10074000BE01CD01000C089560957095809590953F
:1007500030954095509521953F4F4F4F5F4F6F4FCC
:100760007F4F8F4F9F4F08952F923F924F925F92EE
:100770006F927F928F929F92AF92BF92CF92DF92B1
:10078000EF92FF920F931F93CF93DF93CDB7DEB716
:10079000CA1BDB0B0FB6F894DEBF0FBECDBF0994AA
:1007A0002A88398848885F846E847D848C849B8401
:1007B000AA84B984C884DF80EE80FD800C811B810F
:1007C000AA81B981CE0FD11D0FB6F894DEBF0FBE3E
:1007D000CDBFED0108950024A7FD00942A17300530
:1007E0004005500560057005800590050895A29F9D
:1007F000B001B39FC001A39F700D811D1124911DF5
:10080000B29F700D811D1124911D0895F894FFCFA2
:100810004432AC1DAE0FF507FF030002000180005B
:100820004000200010000800040002000100783A97
:1008300020000900793A20007A3A20000D0A00745D
:10084000686574613A2000633A2000733A20000022
:00000001FF
