:100000000C9434000C9449000C9449000C94490061
:100010000C9449000C9449000C9449000C9449003C
:100020000C9449000C9449000C9449000C9449002C
:100030000C9449000C9449000C9449000C9449001C
:100040000C9449000C9449000C9449000C9449000C
:100050000C9449000C9449000C9449000C944900FC
:100060000C9449000C94490011241FBECFEFD8E036
:10007000DEBFCDBF11E0A0E0B1E0E2EEFAE002C0E9
:1000800005900D92A234B107D9F70E94AF030C94EA
:100090006F050C940000CF92DF92EF92FF920F93C6
:1000A0001F938B019C0180E090E0A0E0B0E4081772
:1000B00019072A073B0740F442E0B695A7959795A4
:1000C00087954A95D1F7F3CF40E050E0BA01009709
:1000D000A105B105F9F06C017D01C40ED51EE61E27
:1000E000F71E76956795579547950C151D052E05B6
:1000F0003F0540F00C191D092E093F09480F591FF3
:100100006A1F7B1FE2E0B695A79597958795EA95BC
:10011000D1F7DDCFCB01BA011F910F91FF90EF9086
:10012000DF90CF9008952F923F924F925F926F92FF
:100130007F928F929F92AF92BF92CF92DF92EF9277
:10014000FF920F931F93CF93DF93CDB7DEB72B971B
:100150000FB6F894DEBF0FBECDBF2B013C015B870D
:100160004A87190100E011E0E0E0F0E0C12CD12C59
:10017000760120E030E440E050E029833A834B836D
:100180005C8377FE05C088248A94982C540104C0AF
:10019000812C912C54018394E987A70196010E2E9E
:1001A00004C055954795379527950A94D2F7C50110
:1001B000B4010E94560429813A814B815C81261B3F
:1001C000370B480B590B2D833E834F83588729816A
:1001D0003A814B815C810E2E04C055954795379529
:1001E00027950A94D2F7C501B4010E945604C60EA1
:1001F000D71EE81EF91ED8018D919D918D01DC015D
:10020000A50194010E947204461A570A680A790AE5
:100210003196EE30F10549F08D819E81AF81B88530
:1002200089839A83AB83BC83ACCFADEDB6E22D81DD
:100230003E814F8158850E947204DC01CB012EE083
:10024000B595A795979587952A95D1F7F101808364
:100250009183A283B383ADEDB6E2A70196010E941C
:100260007204DC01CB013EE0B595A7959795879583
:100270003A95D1F7EA85FB8580839183A283B38386
:100280002B960FB6F894DEBF0FBECDBFDF91CF9196
:100290001F910F91FF90EF90DF90CF90BF90AF90A4
:1002A0009F908F907F906F905F904F903F902F9096
:1002B00008954F925F926F927F928F929F92AF922A
:1002C000BF92CF92DF92EF92FF920F931F93CF9343
:1002D000DF93CDB7DEB729970FB6F894DEBF0FBE18
:1002E000CDBF6B017C0129013A0100E011E0E0E0A3
:1002F000F0E019821A821B821C8277FE05C0812CD5
:10030000912C5401839404C088248A94982C54011D
:10031000E987A30192010E2E04C0559547953795A4
:1003200027950A94D2F7C501B4010E945604A7018B
:100330009601261B370B480B590B2D833E834F83A9
:100340005887A70196010E2E04C0559547953795FD
:1003500027950A94D2F7C501B4010E945604460EAF
:10036000571E681E791ED8018D919D918D01DC016B
:10037000A50194010E94720429813A814B815C811C
:10038000261B370B480B590B29833A834B835C831D
:100390003196EE30F10529F0CD80DE80EF80F884D3
:1003A000ACCFCA01B90129960FB6F894DEBF0FBED3
:1003B000CDBFDF91CF911F910F91FF90EF90DF9014
:1003C000CF90BF90AF909F908F907F906F905F90F5
:1003D0004F9008954F925F926F927F928F929F926B
:1003E000AF92BF92CF92DF92EF92FF920F931F9343
:1003F000CF93DF93CDB7DEB729970FB6F894DEBF62
:100400000FBECDBF6B017C019B01AC010E94560465
:1004100001E010E020E030E048015901861A970A17
:10042000A80AB90AC501B4010E944B002B013C0186
:1004300000E011E0E0E0F0E019821A821B821C82E9
:1004400077FE05C0812C912C5401839404C088242C
:100450008A94982C5401E987A30192010E2E04C0BE
:1004600055954795379527950A94D2F7C501B4015C
:100470000E945604A7019601261B370B480B590B07
:100480002D833E834F835887A70196010E2E04C00B
:1004900055954795379527950A94D2F7C501B4012C
:1004A0000E945604460E571E681E791ED8018D9173
:1004B0009D918D01DC01A50194010E947204898047
:1004C0009A80AB80BC80861A970AA80AB90A8982EA
:1004D0009A82AB82BC823196EE30F10529F0CD8054
:1004E000DE80EF80F884ACCFC501B40129960FB649
:1004F000F894DEBF0FBECDBFDF91CF911F910F915A
:10050000FF90EF90DF90CF90BF90AF909F908F9033
:100510007F906F905F904F9008951092C50089E191
:100520008093C400E0ECF0E080818D7F808388E9D7
:100530008093C10086E08093C20008959091C0002E
:1005400095FFFCCF8093C6000895CF93DF93C82F0B
:1005500064E60E946604D92F805D0E949E022AE014
:100560008C2F622F0E9466040E94660480E3890F2C
:100570000E949E0280E38D0FDF91CF910C949E022A
:10058000EF92FF920F931F93CF93DF938C01CFE0F5
:10059000D0E0EE24E394F12CC7010C2E02C0880FAA
:1005A000991F0A94E2F780239123892B11F081E3AC
:1005B00001C080E30E949E02219770F7DF91CF91E6
:1005C0001F910F91FF90EF9008950F931F93CF937A
:1005D0008C01C0E0F801EC0FF11D8081882321F02F
:1005E0000E949E02CF5FF6CFCF911F910F91089589
:1005F0002F923F924F925F926F927F928F929F9233
:10060000AF92BF92CF92DF92EF92FF920F931F9320
:10061000CF93DF93CDB7DEB76D970FB6F894DEBFFB
:100620000FBECDBF29013A014B011C01A0E00E9481
:10063000540539F480E3898321E030E03B8F2A8F31
:1006400068C0A0E00E94540574F48DE28983822D75
:100650000E940D0529013A014B011C0181E090E047
:100660009F8B8E8B02C01F8A1E8AA1E0B0E0AC0F68
:10067000BD1FEE89FF89AE0FBF1FB98FA88FBD8F39
:10068000AC8F8E899F8901969B8F8A8F8AE0A82ED6
:10069000B12CC12CD12CE12CF12C00E010E0920106
:1006A000A301B401C1010E947D04205DAC8DBD8D0C
:1006B0002D93BD8FAC8F9201A301B401C1010E94A3
:1006C0007F0429013A014B011C01A0E00E9454055E
:1006D00029F02A8D3B8D3F8B2E8BD3CF9E012F5F30
:1006E0003F4FEE89FF89E20FF31FAF01421B530B0F
:1006F000888D998D821B930B8417950754F4A88DD0
:10070000B98D8C9190819D93B98FA88F80833197FB
:10071000ECCFE1E0F0E0EC0FFD1F2A8D3B8DE20F06
:10072000F31F1082CE0101960E94E5026D960FB66E
:10073000F894DEBF0FBECDBFDF91CF911F910F9117
:10074000FF90EF90DF90CF90BF90AF909F908F90F1
:100750007F906F905F904F903F902F9008958F9271
:100760009F92AF92BF92CF92DF92EF92FF92CF9380
:10077000DF93CDB7DEB728970FB6F894DEBF0FBE74
:10078000CDBF0E948D029E012F5F3F4FAE014B5F98
:100790005F4F60E37EE480E090E00E9493008EE192
:1007A00091E00E94E50289819A81AB81BC816C0154
:1007B0007D01FF0CCC08DC2C76019C01AD016C2D79
:1007C0007C2D8C2D9C2D0E94F80284E291E00E94E9
:1007D000E50286E291E00E94E5028D819E81AF8173
:1007E000B8856C017D01FF0CCC08DC2C76019C01E6
:1007F000AD016C2D7C2D8C2D9C2D0E94F8028CE27D
:1008000091E00E94E50220E030E240E050E066E640
:1008100076E080E090E00E9459016B017C018FE25C
:1008200091E00E94E50246015701BB0C8808982C14
:1008300054019601A701682D782D882D982D0E94CE
:10084000F8028CE291E00E94E50260E970E080E04D
:1008500090E00E944B006B017C0188E391E00E94D4
:10086000E50246015701BB0C8808982C54019601FB
:10087000A701682D782D882D982D0E94F8028CE212
:1008800091E00E94E50280E090E028960FB6F8948F
:10089000DEBF0FBECDBFDF91CF91FF90EF90DF9015
:1008A000CF90BF90AF909F908F900895DB018F9372
:1008B0009F930E947204BF91AF91A29F800D911DE2
:1008C000A39F900DB29F900D11240895991B79E07C
:1008D00004C0991F961708F0961B881F7A95C9F7D0
:1008E000809508950E946005A59F900DB49F900D7E
:1008F000A49F800D911D11240895689401C0E8946F
:10090000F92FF12B12F00C94B104A0E0B0E0EBE869
:10091000F4E00C942305092E059422F40E940D05A1
:10092000112392F4F0E80F26FFEFE094F094009585
:100930001095B094C094D094A194BF0ACF0ADF0A56
:10094000EF0AFF0A0F0B1F0B0E94BC0407FC0E945A
:100950000D05CDB7DEB7ECE00C943F05689401C0FF
:10096000E8948F929F92CF93DF930E94BC04DF9113
:10097000CF919F908F90089588249924F401E401E9
:10098000B0E49F93AA279A158B049C04ED05FE05FD
:10099000CF05D007A10798F4AD2FDC2FCF2FFE2F66
:1009A000E92D982C892E982F872F762F652F542F7D
:1009B000432F322F2227B85031F7BF9127C01B2E6B
:1009C000BF91BB27220F331F441F551F661F771F80
:1009D000881F991F881C991CEE1FFF1FCC1FDD1F4D
:1009E000AA1FBB1F8A149B04EC05FD05CE05DF057D
:1009F000A007B10748F08A189B08EC09FD09CE0949
:100A0000DF09A00BB10B21601A94E1F62EF49401DA
:100A1000AF01BE01CD01000C0895609570958095E1
:100A2000909530954095509521953F4F4F4F5F4F92
:100A30006F4F7F4F8F4F9F4F08952F923F924F924E
:100A40005F926F927F928F929F92AF92BF92CF925E
:100A5000DF92EF92FF920F931F93CF93DF93CDB767
:100A6000DEB7CA1BDB0B0FB6F894DEBF0FBECDBFDF
:100A700009942A88398848885F846E847D848C84B0
:100A80009B84AA84B984C884DF80EE80FD800C81B9
:100A90001B81AA81B981CE0FD11D0FB6F894DEBF9C
:100AA0000FBECDBFED0108950024A7FD00942A17C5
:100AB00030054005500560057005800590050895D6
:100AC000A29FB001B39FC001A39F700D811D11248F
:100AD000911DB29F700D811D1124911D0895F894F0
:020AE000FFCF46
:100AE2004432AC1DAE0FF507FF0300020001800087
:100AF2004000200010000800040002000100636FA3
:100B0200733A2000090073696E3A20000D0A0061F1
:100B1200726374616E3A20006670737172743A2067
:020B22000000D1
:00000001FF
