:100000000C9434000C9449000C9449000C94490061
:100010000C9449000C9449000C9449000C9449003C
:100020000C9449000C9449000C9449000C9449002C
:100030000C9449000C9449000C9449000C9449001C
:100040000C9449000C9449000C9449000C9449000C
:100050000C9449000C9449000C9449000C944900FC
:100060000C9449000C94490011241FBECFEFD8E036
:10007000DEBFCDBF11E0A0E0B1E0EEE2FDE002C0E6
:1000800005900D92AC33B107D9F70E94E1030C94AF
:1000900095060C940000CF92DF92EF92FF920F939F
:1000A0001F938B019C0180E090E0A0E0B0E4081772
:1000B00019072A073B0740F442E0B695A7959795A4
:1000C00087954A95D1F7F3CF40E050E0BA01009709
:1000D000A105B105F9F06C017D01C40ED51EE61E27
:1000E000F71E76956795579547950C151D052E05B6
:1000F0003F0540F00C191D092E093F09480F591FF3
:100100006A1F7B1FE2E0B695A79597958795EA95BC
:10011000D1F7DDCFCB01BA011F910F91FF90EF9086
:10012000DF90CF9008952F923F924F925F926F92FF
:100130007F928F929F92AF92BF92CF92DF92EF9277
:10014000FF920F931F93CF93DF93CDB7DEB72B971B
:100150000FB6F894DEBF0FBECDBF5B874A8719018B
:1001600020E030E040E856E40E9400060E94A1052D
:100170002B013C0100E011E0E0E0F0E0C12CD12CCB
:10018000760120E030E440E050E029833A834B835D
:100190005C8377FE05C088248A94982C540104C09F
:1001A000812C912C54018394E987A70196010E2E8E
:1001B00004C055954795379527950A94D2F7C50100
:1001C000B4010E94880429813A814B815C81261BFD
:1001D000370B480B590B2D833E834F83588729815A
:1001E0003A814B815C810E2E04C055954795379519
:1001F00027950A94D2F7C501B4010E948804C60E5F
:10020000D71EE81EF91ED8018D919D918D01DC014C
:10021000A50194010E94A404461A570A680A790AA3
:100220003196EE30F10549F08D819E81AF81B88520
:1002300089839A83AB83BC83ACCFADEDB6E22D81CD
:100240003E814F8158850E94A404DC01CB012EE041
:10025000B595A795979587952A95D1F7F101808354
:100260009183A283B383ADEDB6E2A70196010E940C
:10027000A404DC01CB013EE0B595A7959795879541
:100280003A95D1F7EA85FB8580839183A283B38376
:100290002B960FB6F894DEBF0FBECDBFDF91CF9186
:1002A0001F910F91FF90EF90DF90CF90BF90AF9094
:1002B0009F908F907F906F905F904F903F902F9086
:1002C00008954F925F926F927F928F929F92AF921A
:1002D000BF92CF92DF92EF92FF920F931F93CF9333
:1002E000DF93CDB7DEB729970FB6F894DEBF0FBE08
:1002F000CDBF49015A0120E030E040E856E40E94B9
:1003000000060E94A1056B017C0120E030E040E87E
:1003100056E4C501B4010E9400060E94A1052B010C
:100320003C0100E011E0E0E0F0E019821A821B825B
:100330001C8277FE05C0812C912C5401839404C04B
:1003400088248A94982C5401E987A30192010E2EE7
:1003500004C055954795379527950A94D2F7C5015E
:10036000B4010E948804A7019601261B370B480B95
:10037000590B2D833E834F835887A70196010E2E7C
:1003800004C055954795379527950A94D2F7C5012E
:10039000B4010E948804460E571E681E791ED801BB
:1003A0008D919D918D01DC01A50194010E94A40411
:1003B00029813A814B815C81261B370B480B590BF5
:1003C00029833A834B835C833196EE30F10529F023
:1003D000CD80DE80EF80F884ACCFCA01B9012996C8
:1003E0000FB6F894DEBF0FBECDBFDF91CF911F9146
:1003F0000F91FF90EF90DF90CF90BF90AF909F90C4
:100400008F907F906F905F904F9008954F925F9282
:100410006F927F928F929F92AF92BF92CF92DF9214
:10042000EF92FF920F931F93CF93DF93CDB7DEB779
:1004300029970FB6F894DEBF0FBECDBF20E030E0A5
:1004400040E856E40E9400060E94A1056B017C0171
:100450009B01AC010E9488048B019C014EE0359504
:100460002795179507954A95D1F780E090E4A0E08D
:10047000B0E0801B910BA20BB30BBC01CD015EE081
:10048000660F771F881F991F5A95D1F70E944B005E
:100490002B013C0100E011E0E0E0F0E019821A825B
:1004A0001B821C8277FE05C0812C912C5401839401
:1004B00004C088248A94982C5401E987A3019201EE
:1004C0000E2E04C055954795379527950A94D2F777
:1004D000C501B4010E948804A7019601261B370BB1
:1004E000480B590B2D833E834F835887A7019601F4
:1004F0000E2E04C055954795379527950A94D2F747
:10050000C501B4010E948804460E571E681E791E5C
:10051000D8018D919D918D01DC01A50194010E946E
:10052000A40429813A814B815C81261B370B480B3F
:10053000590B29833A834B835C833196EE30F10566
:1005400029F0CD80DE80EF80F884ACCFCA01B901FC
:1005500029960FB6F894DEBF0FBECDBFDF91CF91C5
:100560001F910F91FF90EF90DF90CF90BF90AF90D1
:100570009F908F907F906F905F904F900895109212
:10058000C50089E18093C400E0ECF0E080818D7FBC
:10059000808388E98093C10086E08093C20008953B
:1005A0009091C00095FFFCCF8093C6000895CF9333
:1005B000DF93C82F64E60E949804D92F805D0E94C3
:1005C000D0022AE08C2F622F0E9498040E94980487
:1005D00080E3890F0E94D00280E38D0FDF91CF91DD
:1005E0000C94D002EF92FF920F931F93CF93DF935F
:1005F0008C01CFE0D0E0EE24E394F12CC7010C2E67
:1006000002C0880F991F0A94E2F780239123892B57
:1006100011F081E301C080E30E94D002219770F7BE
:10062000DF91CF911F910F91FF90EF9008950F935D
:100630001F93CF938C01C0E0F801EC0FF11D808176
:10064000882321F00E94D002CF5FF6CFCF911F9177
:100650000F9108952F923F924F925F926F927F92E7
:100660008F929F92AF92BF92CF92DF92EF92FF92C2
:100670000F931F93CF93DF93CDB7DEB76D970FB670
:10068000F894DEBF0FBECDBF29013A014B011C011A
:10069000A0E00E94860539F480E3898321E030E000
:1006A0003B8F2A8F68C0A0E00E94860574F48DE21B
:1006B0008983822D0E943F0529013A014B011C01CB
:1006C00081E090E09F8B8E8B02C01F8A1E8AA1E082
:1006D000B0E0AC0FBD1FEE89FF89AE0FBF1FB98F11
:1006E000A88FBD8FAC8F8E899F8901969B8F8A8F33
:1006F0008AE0A82EB12CC12CD12CE12CF12C00E0E9
:1007000010E09201A301B401C1010E94AF04205D79
:10071000AC8DBD8D2D93BD8FAC8F9201A301B40123
:10072000C1010E94B10429013A014B011C01A0E062
:100730000E94860529F02A8D3B8D3F8B2E8BD3CFCF
:100740009E012F5F3F4FEE89FF89E20FF31FAF013C
:10075000421B530B888D998D821B930B8417950731
:1007600054F4A88DB98D8C9190819D93B98FA88FE9
:1007700080833197ECCFE1E0F0E0EC0FFD1F2A8D94
:100780003B8DE20FF31F1082CE0101960E941703EA
:100790006D960FB6F894DEBF0FBECDBFDF91CF913F
:1007A0001F910F91FF90EF90DF90CF90BF90AF908F
:1007B0009F908F907F906F905F904F903F902F9081
:1007C00008958F929F92AF92BF92CF92DF92EF9255
:1007D000FF92CF93DF93CDB7DEB728970FB6F8948B
:1007E000DEBF0FBECDBF0E94BF029E012F5F3F4FF5
:1007F000AE014B5F5F4F66EA71E68CE99FE30E94B2
:10080000930085E391E00E94170389819A81AB816F
:10081000BC816C017D01FF0CCC08DC2C76019C01B5
:10082000AD016C2D7C2D8C2D9C2D0E942A038EE118
:1008300091E00E94170380E291E00E9417038D81EE
:100840009E81AF81B8856C017D01FF0CCC08DC2C4A
:1008500076019C01AD016C2D7C2D8C2D9C2D0E9470
:100860002A0386E291E00E94170320E030E040E096
:100870005FE36DEC7CEC8CEC9DE30E9461016B010D
:100880007C0189E291E00E94170346015701BB0CED
:100890008808982C54019601A701682D782D882D81
:1008A000982D0E942A0386E291E00E9417036DECC6
:1008B0007CEC8CEC9DE30E9406026B017C0182E3E0
:1008C00091E00E94170346015701BB0C8808982C41
:1008D00054019601A701682D782D882D982D0E942E
:1008E0002A0386E291E00E94170380E090E02896B8
:1008F0000FB6F894DEBF0FBECDBFDF91CF91FF9052
:10090000EF90DF90CF90BF90AF909F908F90089521
:10091000DB018F939F930E94A404BF91AF91A29F8C
:10092000800D911DA39F900DB29F900D11240895ED
:10093000991B79E004C0991F961708F0961B881F31
:100940007A95C9F7809508950E949205A59F900D0C
:10095000B49F900DA49F800D911D1124089568945B
:1009600001C0E894F92FF12B12F00C94E304A0E0FD
:10097000B0E0EDEBF4E00C945505092E059422F45B
:100980000E943F05112392F4F0E80F26FFEFE09458
:10099000F09400951095B094C094D094A194BF0A9F
:1009A000CF0ADF0AEF0AFF0A0F0B1F0B0E94EE04AB
:1009B00007FC0E943F05CDB7DEB7ECE00C94710553
:1009C000689401C0E8948F929F92CF93DF930E9426
:1009D000EE04DF91CF919F908F9008958824992401
:1009E000F401E401B0E49F93AA279A158B049C04B8
:1009F000ED05FE05CF05D007A10798F4AD2FDC2F3C
:100A0000CF2FFE2FE92D982C892E982F872F762F08
:100A1000652F542F432F322F2227B85031F7BF9123
:100A200027C01B2EBF91BB27220F331F441F551F0A
:100A3000661F771F881F991F881C991CEE1FFF1FB8
:100A4000CC1FDD1FAA1FBB1F8A149B04EC05FD05EC
:100A5000CE05DF05A007B10748F08A189B08EC090E
:100A6000FD09CE09DF09A00BB10B21601A94E1F654
:100A70002EF49401AF01BE01CD01000C08956095E4
:100A800070958095909530954095509521953F4F64
:100A90004F4F5F4F6F4F7F4F8F4F9F4F08952F9254
:100AA0003F924F925F926F927F928F929F92AF92FE
:100AB000BF92CF92DF92EF92FF920F931F93CF934B
:100AC000DF93CDB7DEB7CA1BDB0B0FB6F894DEBFE2
:100AD0000FBECDBF09942A88398848885F846E8408
:100AE0007D848C849B84AA84B984C884DF80EE8052
:100AF000FD800C811B81AA81B981CE0FD11D0FB65B
:100B0000F894DEBF0FBECDBFED0108950024A7FD10
:100B100000942A17300540055005600570058005D2
:100B200090050895A29FB001B39FC001A39F700DCF
:100B3000811D1124911DB29F700D811D1124911DE5
:100B400008950E94A8056894B1110C94FA050895BF
:100B50000E94DF0588F09F5798F0B92F9927B75169
:100B6000B0F0E1F0660F771F881F991F1AF0BA9551
:100B7000C9F714C0B13091F00E94F905B1E00895B1
:100B80000C94F905672F782F8827B85F39F0B93FA3
:100B9000CCF3869577956795B395D9F73EF4909504
:100BA0008095709561957F4F8F4F9F4F089557FDAA
:100BB0009058440F551F59F05F3F71F04795880FCB
:100BC00097FB991F61F09F3F79F087950895121662
:100BD00013061406551FF2CF4695F1DF08C016160E
:100BE00017061806991FF1CF8695710561050894BF
:100BF0000895E894BB2766277727CB0197F90895D6
:100C00000E9413060C9484060E94760638F00E9417
:100C10007D0620F0952311F00C946D060C9473065C
:100C200011240C94FA050E94D70570F3959FC1F327
:100C3000950F50E0551F629FF001729FBB27F00D8A
:100C4000B11D639FAA27F00DB11DAA1F649F6627DF
:100C5000B00DA11D661F829F2227B00DA11D621F2E
:100C6000739FB00DA11D621F839FA00D611D221FE8
:100C7000749F3327A00D611D231F849F600D211DCC
:100C8000822F762F6A2F11249F5750409AF0F1F04F
:100C900088234AF0EE0FFF1FBB1F661F771F881FB8
:100CA00091505040A9F79E3F510580F00C946D067D
:100CB0000C94FA055F3FE4F3983ED4F3869577955C
:100CC0006795B795F795E7959F5FC1F7FE2B880F5E
:100CD000911D9695879597F9089597F99F6780E8F4
:100CE00070E060E008959FEF80EC089500240A947E
:100CF0001616170618060906089500240A941216F7
:100D00001306140605060895092E0394000C11F429
:100D1000882352F0BB0F40F4BF2B11F460FF04C0D6
:0E0D20006F5F7F4F8F4F9F4F0895F894FFCF66
:100D2E004432AC1DAE0FF507FF0300020001800038
:100D3E00400020001000080004000200010009001D
:100D4E0073696E3A20000D0A0061726374616E3A27
:0C0D5E002000617263636F733A20000094
:00000001FF
