:100000000C9434000C9449000C9449000C94490061
:100010000C9449000C9449000C9449000C9449003C
:100020000C9449000C9449000C9449000C9449002C
:100030000C9449000C9449000C9449000C9449001C
:100040000C9449000C9449000C9449000C9449000C
:100050000C9449000C9449000C9449000C944900FC
:100060000C9449000C94490011241FBECFEFD8E036
:10007000DEBFCDBF11E0A0E0B1E0E2EBFBE002C0EB
:1000800005900D92AA33B107D9F70E94FE030C9494
:10009000D7050C9400001092C50089E18093C4003C
:1000A000E0ECF0E080818D7F808388E98093C1005F
:1000B00086E08093C20008959091C00095FFFCCF28
:1000C0008093C6000895CF93DF93C82F64E60E9403
:1000D0005404D92F805D0E945C002AE08C2F622F8F
:1000E0000E9454040E94540480E3890F0E945C0023
:1000F00080E38D0FDF91CF910C945C00EF92FF9223
:100100000F931F93CF93DF938C01CFE0D0E0EE24C9
:10011000E394F12CC7010C2E02C0880F991F0A949A
:10012000E2F780239123892B11F081E301C080E362
:100130000E945C00219770F7DF91CF911F910F9182
:10014000FF90EF9008950F931F93CF938C01C0E021
:10015000F801EC0FF11D8081882321F00E945C00E2
:10016000CF5FF6CFCF911F910F9108954F925F927D
:100170006F927F928F929F92AF92BF92CF92DF92B7
:10018000EF92FF920F931F93CF93DF93CDB7DEB71C
:100190006F970FB6F894DEBF0FBECDBF9E012F5FE5
:1001A0003F4F7901611571058105910531F480E3B7
:1001B0008983CC24C394D12C42C097FF0CC02DE27C
:1001C000298390958095709561957F4F8F4F9F4FB4
:1001D00001E010E002C000E010E05701A00EB11EE7
:1001E00045012AE0422E512C612C712C68013FEF11
:1001F000C31AD30AA30192010E947404605DD40162
:100200006D934D01B901CA01611571058105910513
:1002100011F08601EBCFF701E00FF11F9F012E19BE
:100220003F09C5018E199F098217930744F4D50130
:100230008C9190819D935D0180833197EFCFF70181
:10024000EC0DFD1D1082C7010E94A3006F960FB632
:10025000F894DEBF0FBECDBFDF91CF911F910F91FC
:10026000FF90EF90DF90CF90BF90AF909F908F90D6
:100270007F906F905F904F900895109280008CE077
:100280008093810082E080936F0088EC90E09093EF
:10029000890080938800089588E48093B8001092C4
:1002A000B90084E08093BC00089584EA8093BC0088
:1002B0008091BC0087FFFCCF089584E98093BC0047
:1002C00008958093BB0084E88093BC008091BC00BB
:1002D00087FFFCCF089584EC8093BC008091BC0024
:1002E00087FFFCCF8091BB00089584E88093BC0019
:1002F0008091BC0087FFFCCF8091BB0008950E94D5
:1003000055018CE60E94610187E00E94610183E053
:100310000E94610184E98093BC000895EF92FF92EE
:100320000F931F93CF93DF93EC017B018A010E940F
:1003300055018CE60E9461018EE00E9461010E94DD
:1003400055018DE60E9461010E946B0188830E9425
:100350007501F7018083288190E0922BF801918349
:10036000808384E98093BC00DF91CF911F910F912E
:10037000FF90EF900895FC018081918187519A4F01
:100380009F700895FC01808191818A529D4F9F70DA
:100390000895813028E0920714F090510895811556
:1003A00028EF92070CF4905F0895CF93C82F0E9416
:1003B000550180EE0E94610181E001C0880FCA955D
:1003C000EAF70E94610184E98093BC008AE18A9582
:1003D000F1F700C0CF9108958AB18C618AB95A981B
:1003E0008AB1806E8AB95D9808954BB121E030E002
:1003F0006330710554F0B90102C0660F771F8A950A
:10040000E2F7CB018095842308C0B90102C0660FD2
:10041000771F8A95E2F7CB01842B8BB908954BB1F6
:1004200021E030E0B90102C0660F771F8A95E2F73C
:10043000CB01462B4BB9EFE8F1E03197F1F700C063
:1004400000009BB1809589238BB98FE891E00197DB
:10045000F1F700C00000089597FF03C091958195C2
:1004600091090895681779070CF4BC01CB01089530
:10047000861797070CF4BC01CB01089577FF03C0E2
:100480007195619571099C0197FF03C03195219584
:100490003109CB01621773070CF4C901261737071E
:1004A0000CF4B9010E946004CB010895CF92DF9251
:1004B000EF92FF920F931F938B019C0180E090E0DD
:1004C000A0E0B0E4081719072A073B0740F442E010
:1004D000B695A795979587954A95D1F7F3CF40E0C4
:1004E00050E0BA010097A105B105F9F06C017D015A
:1004F000C40ED51EE61EF71E76956795579547954F
:100500000C151D052E053F0540F00C191D092E097F
:100510003F09480F591F6A1F7B1FE2E0B695A79558
:1005200097958795EA95D1F7DDCFCB01BA011F9159
:100530000F91FF90EF90DF90CF9008954F925F92D0
:100540006F927F928F929F92AF92BF92CF92DF92E3
:10055000EF92FF920F931F93CF93DF93CDB7DEB748
:1005600029970FB6F894DEBF0FBECDBF4B015C01DB
:10057000CA01B90120E030E040E856E40E9442059B
:100580000E94E3046B017C0120E030E040E856E487
:10059000C501B4010E9442050E94E3042B013C0105
:1005A00000E011E0E0E0F0E019821A821B821C8278
:1005B00077FE05C0812C912C5401839404C08824BB
:1005C0008A94982C5401E987A30192010E2E04C04D
:1005D00055954795379527950A94D2F7C501B401EB
:1005E0000E944404A7019601261B370B480B590BA8
:1005F0002D833E834F835887A70196010E2E04C09A
:1006000055954795379527950A94D2F7C501B401BA
:100610000E944404460E571E681E791ED8018D9113
:100620009D918D01DC01A50194010E949304298113
:100630003A814B815C81261B370B480B590B298370
:100640003A834B835C833196EE30F10529F0CD80FF
:10065000DE80EF80F884ACCFCA01B90129960FB6CD
:10066000F894DEBF0FBECDBFDF91CF911F910F91E8
:10067000FF90EF90DF90CF90BF90AF909F908F90C2
:100680007F906F905F904F9008954F925F926F921E
:100690007F928F929F92AF92BF92CF92DF92EF9212
:1006A000FF920F931F93CF93DF93CDB7DEB72997B8
:1006B0000FB6F894DEBF0FBECDBF20E030E040E8BB
:1006C00056E40E9442050E94E3046B017C019B01F9
:1006D000AC010E9444048B019C014EE035952795A6
:1006E000179507954A95D1F780E090E4A0E0B0E037
:1006F000801B910BA20BB30BBC01CD015EE0660F1A
:10070000771F881F991F5A95D1F70E9456022B0117
:100710003C0100E011E0E0E0F0E019821A821B8267
:100720001C8277FE05C0812C912C5401839404C057
:1007300088248A94982C5401E987A30192010E2EF3
:1007400004C055954795379527950A94D2F7C5016A
:10075000B4010E944404A7019601261B370B480BE5
:10076000590B2D833E834F835887A70196010E2E88
:1007700004C055954795379527950A94D2F7C5013A
:10078000B4010E944404460E571E681E791ED8010B
:100790008D919D918D01DC01A50194010E9493042E
:1007A00029813A814B815C81261B370B480B590B01
:1007B00029833A834B835C833196EE30F10529F02F
:1007C000CD80DE80EF80F884ACCFCA01B9012996D4
:1007D0000FB6F894DEBF0FBECDBFDF91CF911F9152
:1007E0000F91FF90EF90DF90CF90BF90AF909F90D0
:1007F0008F907F906F905F904F9008950E944B0074
:1008000069E07AEC80E090E00E9456024B015C01C6
:1008100020E030E04BE053E460E070E084E393E4F8
:100820000E949E026B017C018EE191E00E94A30078
:10083000C501B4010E94B60086E291E00E94A300C7
:1008400089E291E00E94A300C701B6010E94B600B0
:1008500086E291E00E94A30081E391E00E94A30060
:1008600060E47CE98FEF9FEF0E94B60086E291E0A2
:100870000E94A3002FEF83ED90E321508040904031
:10088000E1F700C00000D0CFDB018F939F930E945F
:100890009304BF91AF91A29F800D911DA39F900DD6
:1008A000B29F900D11240895991B79E004C0991FFF
:1008B000961708F0961B881F7A95C9F780950895BA
:1008C00097FB072E16F4009407D077FD09D00E94FD
:1008D0009E0407FC05D03EF4909581959F4F0895A6
:1008E000709561957F4F0895052E97FB1EF4009437
:1008F0000E948B0457FD07D00E94B20407FC03D06E
:100900004EF40C948B0450954095309521953F4FB3
:100910004F4F5F4F089590958095709561957F4FEB
:100920008F4F9F4F08950E94D404A59F900DB49FB0
:10093000900DA49F800D911D11240895AA1BBB1B2F
:1009400051E107C0AA1FBB1FA617B70710F0A61BCF
:10095000B70B881F991F5A95A9F780959095BC01F0
:10096000CD010895A1E21A2EAA1BBB1BFD010DC0EB
:10097000AA1FBB1FEE1FFF1FA217B307E407F5074F
:1009800020F0A21BB30BE40BF50B661F771F881F2B
:10099000991F1A9469F760957095809590959B01C1
:1009A000AC01BD01CF010895A29FB001B39FC0016A
:1009B000A39F700D811D1124911DB29F700D811D8B
:1009C0001124911D08950E94EA046894B1110C94B9
:1009D0003C0508950E94210588F09F5798F0B92F93
:1009E0009927B751B0F0E1F0660F771F881F991F64
:1009F0001AF0BA95C9F714C0B13091F00E943B05C6
:100A0000B1E008950C943B05672F782F8827B85FD5
:100A100039F0B93FCCF3869577956795B395D9F7BB
:100A20003EF490958095709561957F4F8F4F9F4FC5
:100A3000089557FD9058440F551F59F05F3F71F0CE
:100A40004795880F97FB991F61F09F3F79F0879535
:100A50000895121613061406551FF2CF4695F1DFBE
:100A600008C0161617061806991FF1CF869571054E
:100A7000610508940895E894BB2766277727CB0182
:100A800097F908950E9455050C94C6050E94B80573
:100A900038F00E94BF0520F0952311F00C94AF05AB
:100AA0000C94B50511240C943C050E94190570F3B3
:100AB000959FC1F3950F50E0551F629FF001729F03
:100AC000BB27F00DB11D639FAA27F00DB11DAA1F12
:100AD000649F6627B00DA11D661F829F2227B00D5F
:100AE000A11D621F739FB00DA11D621F839FA00DEA
:100AF000611D221F749F3327A00D611D231F849F3A
:100B0000600D211D822F762F6A2F11249F57504090
:100B10009AF0F1F088234AF0EE0FFF1FBB1F661F0B
:100B2000771F881F91505040A9F79E3F510580F0D4
:100B30000C94AF050C943C055F3FE4F3983ED4F36E
:100B4000869577956795B795F795E7959F5FC1F778
:100B5000FE2B880F911D9695879597F9089597F923
:100B60009F6780E870E060E008959FEF80EC089553
:100B700000240A941616170618060906089500247C
:100B80000A9412161306140605060895092E0394F6
:100B9000000C11F4882352F0BB0F40F4BF2B11F46A
:100BA00060FF04C06F5F7F4F8F4F9F4F0895F89491
:020BB000FFCF75
:100BB2004432AC1DAE0FF507FF03000200018000B6
:100BC2004000200010000800040002000100725FD3
:100BD2006F6E653A20000D0A0074686574613A20F0
:0A0BE2000067616D6D613A200000AC
:00000001FF
