:100000000C9434000C9451000C9451000C94510049
:100010000C9451000C9451000C9451000C9451001C
:100020000C9451000C9451000C9451000C9453000A
:100030000C9451000C9451000C9451000C945100FC
:100040000C9451000C9451000C94CB000C94510072
:100050000C9451000C9451000C9451000C945100DC
:100060000C9451000C94510011241FBECFEFD8E026
:10007000DEBFCDBF11E0A0E0B1E0ECEFF5E002C0E3
:1000800005900D92AA30B107D9F725E0AAE0B1E0BA
:1000900001C01D92A531B207E1F70E9498020C94AD
:1000A000FC020C9400001F920F920FB60F921124C5
:1000B0002F933F934F935F936F937F938F939F9370
:1000C000AF93BF93EF93FF9380910A0190910B013F
:1000D000029799F580910E0190910F0140911001C6
:1000E000509111016091120170911301A0E0B0E0F4
:1000F00084179507A607B70700F5E0910E01F09168
:100100000F01EB5EFE4F808143E064E00E947401CA
:10011000E0910E01F0910F01EB5EFC4F808146E013
:1001200067E00E94740180910E0190910F01019689
:1001300090930F0180930E011DC080910E0190914C
:100140000F014091100150911101609112017091C5
:100150001301A0E0B0E084179507A607B70750F099
:1001600083E090E090930B0180930A0110920F01BD
:1001700010920E01FF91EF91BF91AF919F918F91DE
:100180007F916F915F914F913F912F910F900FBE93
:100190000F901F9018951F920F920FB60F92112477
:1001A0002F933F938F939F93AF93BF93EF93FF93BF
:1001B0008091C60020910A0130910B012115310573
:1001C00021F021303105C1F070C08E3B09F06DC0C7
:1001D00010920D0110920C0181E090E090930B01C0
:1001E00080930A0185E191E09093010180930001E1
:1001F00080916F008D7F26C0803C59F410920D01D4
:1002000010920C0185E193E090930101809300012D
:100210004CC08E3DD1F480910C0190910D01A0E075
:10022000B0E08093100190931101A0931201B0935C
:10023000130182E090E090930B0180930A0180917A
:100240006F00826080936F0030C020910C0130916C
:100250000D012115324048F520910C0130910D011E
:10026000E0910001F0910101805320FD0AC020912E
:100270000C0130910D0136952795E20FF31F880F81
:100280000AC020910C0130910D0136952795E20F9F
:10029000F31F9081892B808380910C0190910D0137
:1002A000019690930D0180930C01FF91EF91BF9106
:1002B000AF919F918F913F912F910F900FBE0F9013
:1002C0001F901895109280008CE08093810082E04E
:1002D00080936F0008958AB18C618AB95A988AB167
:1002E000806E8AB95D980895823051F42BB181E017
:1002F00090E001C0880F6A95EAF7809582230AC0D2
:100300008130D9F42BB181E090E001C0880F6A956B
:10031000EAF7822B8BB92BB181E090E001C0880F06
:100320004A95EAF7922F982B9BB925E32A95F1F786
:1003300000009BB1809589238BB908950E94A60186
:100340000E9462010E946B01789408951092C5008A
:1003500089E18093C400E0ECF0E080818D7F8083B0
:1003600088E98093C10086E08093C200089590914F
:10037000C00095FFFCCF8093C6000895CF93DF9314
:10038000C82F64E60E94AF02D92F805D0E94B7019A
:100390002AE08C2F622F0E94AF020E94AF0280E3FE
:1003A000890F0E94B70180E38D0FDF91CF910C94EC
:1003B000B701EF92FF920F931F93CF93DF938C01BE
:1003C000CFE0D0E0EE24E394F12CC7010C2E02C064
:1003D000880F991F0A94E2F780239123892B11F04B
:1003E00081E301C080E30E94B701219770F7DF919C
:1003F000CF911F910F91FF90EF9008950F931F934E
:10040000CF938C01C0E0F801EC0FF11D80818823AF
:1004100021F00E94B701CF5FF6CFCF911F910F91CE
:1004200008954F925F926F927F928F929F92AF92B8
:10043000BF92CF92DF92EF92FF920F931F93CF93D1
:10044000DF93CDB7DEB76F970FB6F894DEBF0FBE60
:10045000CDBF9E012F5F3F4F790161157105810569
:10046000910531F480E38983CC24C394D12C42C01C
:1004700097FF0CC02DE2298390958095709561952A
:100480007F4F8F4F9F4F01E010E002C000E010E06F
:100490005701A00EB11E45012AE0422E512C612CBD
:1004A000712C68013FEFC31AD30AA30192010E9485
:1004B000BB02605DD4016D934D01B901CA016115A4
:1004C00071058105910511F08601EBCFF701E00F71
:1004D000F11F9F012E193F09C5018E199F0982172F
:1004E000930744F4D5018C9190819D935D018083A5
:1004F0003197EFCFF701EC0DFD1D1082C7010E946F
:10050000FE016F960FB6F894DEBF0FBECDBFDF9130
:10051000CF911F910F91FF90EF90DF90CF90BF9000
:10052000AF909F908F907F906F905F904F900895C5
:100530000E949E018AE090E0909389008093880059
:1005400080910A0190910B010397D1F782E091E02D
:100550000E94FE0110920B0110920A01F1CF991B2B
:1005600079E004C0991F961708F0961B881F7A95AA
:10057000C9F780950895052E97FB1EF400940E94FC
:10058000D20257FD07D00E94DA0207FC03D04EF4D6
:100590000C94D20250954095309521953F4F4F4F86
:1005A0005F4F089590958095709561957F4F8F4F1F
:1005B0009F4F0895A1E21A2EAA1BBB1BFD010DC07F
:1005C000AA1FBB1FEE1FFF1FA217B307E407F50703
:1005D00020F0A21BB30BE40BF50B661F771F881FDF
:1005E000991F1A9469F760957095809590959B0175
:0C05F000AC01BD01CF010895F894FFCFCD
:0A05FC001501444F4E450D0A0000A2
:00000001FF
