:100000000C9434000C9451000C9451000C94510049
:100010000C9451000C9451000C9451000C9451001C
:100020000C9451000C9451000C9451000C9453000A
:100030000C9451000C9451000C9451000C945100FC
:100040000C9451000C9451000C9451000C945100EC
:100050000C9451000C9451000C9451000C945100DC
:100060000C9451000C94510011241FBECFEFD8E026
:10007000DEBFCDBF11E0A0E0B1E0E0EAFEE002C0EB
:1000800005900D92AE34B107D9F721E0AEE4B1E0AE
:1000900001C01D92AE36B207E1F70E9411050C9423
:1000A0004E070C9400001F920F920FB60F9211246E
:1000B0008F9381E080934F018F910F900FBE0F902F
:1000C0001F901895CF93DF9384E00E94F60146E5D8
:1000D00051E063E571E082E591E00E94AF0186E5C1
:1000E00091E00E94DC01C2E5D1E0998788872C85E8
:1000F0003D85A901481B590BCA010E94EA01998B51
:10010000888B82E00E94F60148E551E065E571E0E8
:1001100084E591E00E94AF0188E591E00E94E3014F
:100120009B878A872E853F85A901481B590BCA01E9
:100130000E94EA019B8B8A8BDF91CF910895609199
:1001400062017091630184E00E94160283E00C94C6
:100150003002609164017091650187E00E9416028F
:1001600086E00C943002209162013091630137FFE8
:1001700003C0319521953109609164017091650149
:1001800077FF03C071956195710981E090E0621776
:10019000730760F490936B0180936A01C9010E9418
:1001A000D70570936D0160936C01089590936D0174
:1001B00080936C01CB01B9010E94D70570936B014C
:1001C00060936A010895CF93DF93EC0188818111D8
:1001D0001CC00E94620080916201909163010296AE
:1001E000059740F48091640190916501029605970E
:1001F00008F461C0109267011092660110926901C3
:100200001092680181E0888356C080914F01882355
:1002100009F451C010924F010E9462000E94B30085
:1002200080916201909163010296059740F480915C
:100230006401909165010296059708F418828091F7
:100240006201909163010296059770F080916601BA
:100250009091670160916A0170916B010E94D705CE
:10026000892B11F40E949F00809164019091650197
:100270000296059770F080916801909169016091F4
:100280006C0170916D010E94D705892B11F40E94B9
:10029000A900809166019091670101969093670192
:1002A0008093660180916801909169010196909315
:1002B000690180936801DF91CF91089510928000C9
:1002C0008CE08093810082E080936F0084E690E070
:1002D0009093890080938800089588E48093B80003
:1002E0001092B90084E08093BC00089584EA809362
:1002F000BC008091BC0087FFFCCF089584E9809307
:10030000BC0008958093BB0084E88093BC0080917A
:10031000BC0087FFFCCF089584EC8093BC008091E3
:10032000BC0087FFFCCF8091BB00089584E88093D8
:10033000BC008091BC0087FFFCCF8091BB0008957A
:100340000E9476018CE60E94820187E00E94820171
:1003500083E00E94820184E98093BC000895EF92BB
:10036000FF920F931F93CF93DF93EC017B018A01E0
:100370000E9476018CE60E9482018EE00E9482013A
:100380000E9476018DE60E9482010E948C01888382
:100390000E949601F7018083288190E0922BF8015A
:1003A0009183808384E98093BC00DF91CF911F917A
:1003B0000F91FF90EF900895FC018081918187510A
:1003C0009A4F9F700895FC01808191818A529D4FC0
:1003D0009F700895813028E0920714F0905108959D
:1003E000811528EF92070CF4905F0895CF93C82FE2
:1003F0000E94760180EE0E94820181E001C0880F98
:10040000CA95EAF70E94820184E98093BC008AE1E0
:100410008A95F1F700C0CF9108958AB18C618AB9AD
:100420005A988AB1806E8AB95D9808954BB121E0DF
:1004300030E06330710554F0B90102C0660F771FD8
:100440008A95E2F7CB018095842308C0B90102C0E8
:10045000660F771F8A95E2F7CB01842B8BB908953D
:100460004BB121E030E0B90102C0660F771F8A95D9
:10047000E2F7CB01462B4BB9EFE8F1E03197F1F70A
:1004800000C000009BB1809589238BB98FE891E073
:100490000197F1F700C00000089597FF03C0919500
:1004A000819591090895681779070CF4BC01CB0177
:1004B0000895861797070CF4BC01CB01089577FFC8
:1004C00003C07195619571099C0197FF03C0319537
:1004D00021953109CB01621773070CF4C901261766
:1004E00037070CF4B9010E94EB05CB010895CF92B8
:1004F000DF92EF92FF920F931F938B019C0180E09C
:1005000090E0A0E0B0E4081719072A073B0740F481
:1005100042E0B695A795979587954A95D1F7F3CF81
:1005200040E050E0BA010097A105B105F9F06C0177
:100530007D01C40ED51EE61EF71E7695679557956C
:1005400047950C151D052E053F0540F00C191D099A
:100550002E093F09480F591F6A1F7B1FE2E0B6951D
:10056000A79597958795EA95D1F7DDCFCB01BA018D
:100570001F910F91FF90EF90DF90CF9008954F92D1
:100580005F926F927F928F929F92AF92BF92CF9223
:10059000DF92EF92FF920F931F93CF93DF93CDB72C
:1005A000DEB729970FB6F894DEBF0FBECDBF4B0163
:1005B0005C01CA01B90120E030E040E856E40E9445
:1005C000B9060E945A066B017C0120E030E040E849
:1005D00056E4C501B4010E94B9060E945A062B01D7
:1005E0003C0100E011E0E0E0F0E019821A821B8299
:1005F0001C8277FE05C0812C912C5401839404C089
:1006000088248A94982C5401E987A30192010E2E24
:1006100004C055954795379527950A94D2F7C5019B
:10062000B4010E94BB05A7019601261B370B480B9E
:10063000590B2D833E834F835887A70196010E2EB9
:1006400004C055954795379527950A94D2F7C5016B
:10065000B4010E94BB05460E571E681E791ED801C4
:100660008D919D918D01DC01A50194010E941E06D2
:1006700029813A814B815C81261B370B480B590B32
:1006800029833A834B835C833196EE30F10529F060
:10069000CD80DE80EF80F884ACCFCA01B901299605
:1006A0000FB6F894DEBF0FBECDBFDF91CF911F9183
:1006B0000F91FF90EF90DF90CF90BF90AF909F9001
:1006C0008F907F906F905F904F9008954F925F92C0
:1006D0006F927F928F929F92AF92BF92CF92DF9252
:1006E000EF92FF920F931F93CF93DF93CDB7DEB7B7
:1006F00029970FB6F894DEBF0FBECDBF20E030E0E3
:1007000040E856E40E94B9060E945A066B017C013B
:100710009B01AC010E94BB058B019C014EE035950D
:100720002795179507954A95D1F780E090E4A0E0CA
:10073000B0E0801B910BA20BB30BBC01CD015EE0BE
:10074000660F771F881F991F5A95D1F70E9477026D
:100750002B013C0100E011E0E0E0F0E019821A8298
:100760001B821C8277FE05C0812C912C540183943E
:1007700004C088248A94982C5401E987A30192012B
:100780000E2E04C055954795379527950A94D2F7B4
:10079000C501B4010E94BB05A7019601261B370BBA
:1007A000480B590B2D833E834F835887A701960131
:1007B0000E2E04C055954795379527950A94D2F784
:1007C000C501B4010E94BB05460E571E681E791E66
:1007D000D8018D919D918D01DC01A50194010E94AC
:1007E0001E0629813A814B815C81261B370B480B01
:1007F000590B29833A834B835C833196EE30F105A4
:1008000029F0CD80DE80EF80F884ACCFCA01B90139
:1008100029960FB6F894DEBF0FBECDBFDF91CF9102
:100820001F910F91FF90EF90DF90CF90BF90AF900E
:100830009F908F907F906F905F904F90089510924F
:10084000C50089E18093C400E0ECF0E080818D7FF9
:10085000808388E98093C10086E08093C200089578
:100860009091C00095FFFCCF8093C6000895CF9370
:10087000DF93C82F64E60E94CB05D92F805D0E94CC
:1008800030042AE08C2F622F0E94CB050E94CB05FA
:1008900080E3890F0E94300480E38D0FDF91CF91B8
:1008A0000C943004EF92FF920F931F93CF93DF933A
:1008B0008C01CFE0D0E0EE24E394F12CC7010C2EA4
:1008C00002C0880F991F0A94E2F780239123892B95
:1008D00011F081E301C080E30E943004219770F79A
:1008E000DF91CF911F910F91FF90EF9008950F939B
:1008F0001F93CF938C01C0E0F801EC0FF11D8081B4
:10090000882321F00E943004CF5FF6CFCF911F9152
:100910000F9108954F925F926F927F928F929F9264
:10092000AF92BF92CF92DF92EF92FF920F931F93FD
:10093000CF93DF93CDB7DEB76F970FB6F894DEBFD6
:100940000FBECDBF9E012F5F3F4F7901611571052D
:100950008105910531F480E38983CC24C394D12CA3
:1009600042C097FF0CC02DE2298390958095709529
:1009700061957F4F8F4F9F4F01E010E002C000E074
:1009800010E05701A00EB11E45012AE0422E512C65
:10099000612C712C68013FEFC31AD30AA3019201A5
:1009A0000E94FF05605DD4016D934D01B901CA013C
:1009B000611571058105910511F08601EBCFF701F5
:1009C000E00FF11F9F012E193F09C5018E199F09E4
:1009D0008217930744F4D5018C9190819D935D011A
:1009E00080833197EFCFF701EC0DFD1D1082C70119
:1009F0000E9477046F960FB6F894DEBF0FBECDBF8E
:100A0000DF91CF911F910F91FF90EF90DF90CF90EA
:100A1000BF90AF909F908F907F906F905F904F901E
:100A20000895CF93DF93CDB7DEB760970FB6F894F4
:100A3000DEBF0FBECDBF0E941F040E946D010E9449
:100A40005E010E940D02789488E0EEE1F1E0DE01A3
:100A5000199601900D928A95E1F788E0E6E2F1E0BF
:100A6000DE01119601900D928A95E1F799249394F5
:100A70008E01075F1F4FCE0101965C01C12CD12C66
:100A80007601F801819191918F0190935F0180939C
:100A90005E01F501819191915F01909361018093D5
:100AA000600190924E018091500190915101019608
:100AB000909351018093500180914E01813029F42F
:100AC0008EE491E00E94E300F7CF8EE291E00E9475
:100AD0007704609150017091510180E090E00E9494
:100AE0008A0485E391E00E94770487E391E00E9405
:100AF0007704C701B6010E948A0485E391E00E9451
:100B000077048DE391E00E94770460916201709117
:100B10006301072E000C880B990B0E948A0485E361
:100B200091E00E94770484E491E00E947704609150
:100B3000640170916501072E000C880B990B0E94CF
:100B40008A048BE491E00E947704FFEF23ED80E3B9
:100B5000F15020408040E1F700C000009FEFC91A2B
:100B6000D90AE90AF90AE4E0CE16D104E104F10455
:100B700009F087CF7DCFDB018F939F930E941E06E4
:100B8000BF91AF91A29F800D911DA39F900DB29F29
:100B9000900D11240895991B79E004C0991F9617B0
:100BA00008F0961B881F7A95C9F780950895AA1BAF
:100BB000BB1B51E107C0AA1FBB1FA617B70710F048
:100BC000A61BB70B881F991F5A95A9F7809590957A
:100BD000BC01CD01089597FB072E16F4009407D0B1
:100BE00077FD09D00E94D70507FC05D03EF490950B
:100BF00081959F4F0895709561957F4F0895052EBB
:100C000097FB1EF400940E94160657FD07D00E9421
:100C1000290607FC03D04EF40C9416065095409517
:100C2000309521953F4F4F4F5F4F08959095809598
:100C3000709561957F4F8F4F9F4F08950E944B068F
:100C4000A59F900DB49F900DA49F800D911D112420
:100C50000895A1E21A2EAA1BBB1BFD010DC0AA1FFD
:100C6000BB1FEE1FFF1FA217B307E407F50720F015
:100C7000A21BB30BE40BF50B661F771F881F991F90
:100C80001A9469F760957095809590959B01AC01D9
:100C9000BD01CF010895A29FB001B39FC001A39FE2
:100CA000700D811D1124911DB29F700D811D1124A5
:100CB000911D08950E9461066894B1110C94B306C9
:100CC00008950E94980688F09F5798F0B92F9927A9
:100CD000B751B0F0E1F0660F771F881F991F1AF027
:100CE000BA95C9F714C0B13091F00E94B206B1E0D4
:100CF00008950C94B206672F782F8827B85F39F0D3
:100D0000B93FCCF3869577956795B395D9F73EF4BF
:100D100090958095709561957F4F8F4F9F4F089567
:100D200057FD9058440F551F59F05F3F71F047959C
:100D3000880F97FB991F61F09F3F79F08795089581
:100D4000121613061406551FF2CF4695F1DF08C0A0
:100D5000161617061806991FF1CF869571056105BD
:100D600008940895E894BB2766277727CB0197F965
:100D700008950E94CC060C943D070E942F0738F07E
:100D80000E94360720F0952311F00C9426070C944E
:100D90002C0711240C94B3060E94900670F3959FC3
:100DA000C1F3950F50E0551F629FF001729FBB2762
:100DB000F00DB11D639FAA27F00DB11DAA1F649FFE
:100DC0006627B00DA11D661F829F2227B00DA11DB1
:100DD000621F739FB00DA11D621F839FA00D611D37
:100DE000221F749F3327A00D611D231F849F600D58
:100DF000211D822F762F6A2F11249F5750409AF081
:100E0000F1F088234AF0EE0FFF1FBB1F661F771F0C
:100E1000881F91505040A9F79E3F510580F00C94D7
:100E200026070C94B3065F3FE4F3983ED4F386950F
:100E300077956795B795F795E7959F5FC1F7FE2B77
:100E4000880F911D9695879597F9089597F99F6753
:100E500080E870E060E008959FEF80EC0895002442
:100E60000A941616170618060906089500240A940F
:100E700012161306140605060895092E0394000C95
:100E800011F4882352F0BB0F40F4BF2B11F460FF24
:100E900004C06F5F7F4F8F4F9F4F0895F894FFCF2F
:100EA0004432AC1DAE0FF507FF03000200018000C5
:100EB0004000200010000800040002000100C90FDB
:100EC000DE0F7F0C0E0D3608F10A800B21086974C5
:100ED00065723A20000900706F733A2000657272E3
:0E0EE000413A2000657272423A20000D0A006D
:00000001FF
