:100000000C9434000C9451000C9451000C94510049
:100010000C9451000C9451000C9451000C9451001C
:100020000C9451000C9451000C9451000C9453000A
:100030000C9451000C9451000C9451000C945100FC
:100040000C9451000C9451000C948D000C945100B0
:100050000C9451000C9451000C9451000C945100DC
:100060000C9451000C94510011241FBECFEFD8E026
:10007000DEBFCDBF11E0A0E0B1E0EEE3F6E002C0EC
:1000800005900D92A630B107D9F721E0A6E0B1E0C6
:1000900001C01D92AA30B207E1F70E94BF020C9482
:1000A0001D030C9400001F920F920FB60F921124A3
:1000B0002F933F934F935F936F937F938F939F9370
:1000C000AF93BF93EF93FF93809106019091070147
:1000D000029791F48091080143E064E00E940A01D4
:1000E0008091090146E067E00E940A0183E090E008
:1000F0009093070180930601FF91EF91BF91AF911B
:100100009F918F917F916F915F914F913F912F912F
:100110000F900FBE0F901F9018951F920F920FB661
:100120000F9211242F933F938F939F93EF93FF93FD
:100130008091C600209106013091070121153105FB
:1001400021F021303105A1F042C08E3B09F03FC0C3
:1001500081E090E0909307018093060188E091E0B0
:10016000909301018093000180916F008D7F14C0F6
:10017000803C39F489E091E0909301018093000183
:1001800026C08E3D61F482E090E090930701809359
:10019000060180916F00826080936F0018C08130EB
:1001A00031F4E0910001F09101018FEF0FC0813136
:1001B00031F4E0910001F0910101108208C080311A
:1001C00031F4E0910001F091010181E08083FF9121
:1001D000EF919F918F913F912F910F900FBE0F90B4
:1001E0001F901895109280008CE08093810082E02F
:1001F00080936F008AE090E090938900809388005C
:1002000008958AB18C618AB95A988AB1806E8AB988
:100210005D980895181654F42BB181E090E001C068
:10022000880F6A95EAF7809582230AC08823D9F05F
:100230002BB181E090E001C0880F6A95EAF7822B2C
:100240008BB92BB181E090E001C0880F4A95EAF7A5
:10025000922F982B9BB925E32A95F1F700009BB1CB
:10026000809589238BB9089588E48093B800109213
:10027000B90084E08093BC00089584EA8093BC00B8
:100280008091BC0087FFFCCF089584E98093BC0077
:1002900008958093BB0084E88093BC008091BC00EB
:1002A00087FFFCCF089584EC8093BC008091BC0054
:1002B00087FFFCCF8091BB00089584E88093BC0049
:1002C0008091BC0087FFFCCF8091BB000895CF9345
:1002D000C82F0E943D0180EE0E94490181E001C0CB
:1002E000880FCA95EAF70E94490184E98093BC000F
:1002F0008AE18A95F1F700C0CF910895EF92FF92BD
:100300000F931F93CF93DF93EC017B018A010E942F
:100310003D018CE60E9449018EE00E9449010E9445
:100320003D018DE60E9449010E94530188830E948D
:100330005D01F7018083288190E0922BF801918381
:10034000808384E98093BC00DF91CF911F910F914E
:10035000FF90EF900895FC018081918187519A4F21
:100360009F700895FC01808191818A529D4F9F70FA
:100370000895813028E0920714F090510895811576
:1003800028EF92070CF4905F08950E94CD010E941F
:10039000F2000E940101789408951092C50089E14D
:1003A0008093C400E0ECF0E080818D7F808388E959
:1003B0008093C10086E08093C20008959091C000B0
:1003C00095FFFCCF8093C6000895CF93DF93C82F8D
:1003D00064E60E94D002D92F805D0E94DE012AE0EF
:1003E0008C2F622F0E94D0020E94D00280E3890FDE
:1003F0000E94DE0180E38D0FDF91CF910C94DE012E
:10040000EF92FF920F931F93CF93DF938C01CFE076
:10041000D0E0EE24E394F12CC7010C2E02C0880F2B
:10042000991F0A94E2F780239123892B11F081E32D
:1004300001C080E30E94DE01219770F7DF91CF9128
:100440001F910F91FF90EF9008950F931F93CF93FB
:100450008C01C0E0F801EC0FF11D8081882321F0B0
:100460000E94DE01CF5FF6CFCF911F910F910895CB
:100470004F925F926F927F928F929F92AF92BF92B4
:10048000CF92DF92EF92FF920F931F93CF93DF9360
:10049000CDB7DEB76F970FB6F894DEBF0FBECDBFF6
:1004A0009E012F5F3F4F790161157105810591050F
:1004B00031F480E38983CC24C394D12C42C097FFCC
:1004C0000CC02DE2298390958095709561957F4FA2
:1004D0008F4F9F4F01E010E002C000E010E0570195
:1004E000A00EB11E45012AE0422E512C612C712C28
:1004F00068013FEFC31AD30AA30192010E94DC02F4
:10050000605DD4016D934D01B901CA01611571059A
:100510008105910511F08601EBCFF701E00FF11F86
:100520009F012E193F09C5018E199F098217930754
:1005300044F4D5018C9190819D935D018083319726
:10054000EFCFF701EC0DFD1D1082C7010E942502BF
:100550006F960FB6F894DEBF0FBECDBFDF91CF917F
:100560001F910F91FF90EF90DF90CF90BF90AF90D1
:100570009F908F907F906F905F904F9008950E9412
:10058000C50180910601909107010397D1F782E0A0
:1005900091E00E9425021092070110920601F1CF0E
:1005A000991B79E004C0991F961708F0961B881FC5
:1005B0007A95C9F780950895052E97FB1EF400944F
:1005C0000E94F30257FD07D00E94FB0207FC03D0F4
:1005D0004EF40C94F30250954095309521953F4F81
:1005E0004F4F5F4F089590958095709561957F4F1F
:1005F0008F4F9F4F0895A1E21A2EAA1BBB1BFD012E
:100600000DC0AA1FBB1FEE1FFF1FA217B307E407F1
:10061000F50720F0A21BB30BE40BF50B661F771F49
:10062000881F991F1A9469F7609570958095909529
:0E0630009B01AC01BD01CF010895F894FFCFEE
:06063E0008014E0D0A0048
:00000001FF
