:100000000C9434000C9451000C9451000C94510049
:100010000C9451000C9451000C9451000C9451001C
:100020000C9451000C9451000C9451000C9453000A
:100030000C9451000C9451000C9451000C945100FC
:100040000C9451000C9451000C948D000C945100B0
:100050000C9451000C9451000C9451000C945100DC
:100060000C9451000C94510011241FBECFEFD8E026
:10007000DEBFCDBF11E0A0E0B1E0ECE1F5E002C0F1
:1000800005900D92AA30B107D9F721E0AAE0B1E0BE
:1000900001C01D92AE30B207E1F70E9428020C9415
:1000A0008C020C9400001F920F920FB60F92112435
:1000B0002F933F934F935F936F937F938F939F9370
:1000C000AF93BF93EF93FF9380910A0190910B013F
:1000D000029791F480910C0143E064E00E940401D6
:1000E00080910D0146E067E00E94040183E090E00A
:1000F00090930B0180930A01FF91EF91BF91AF9113
:100100009F918F917F916F915F914F913F912F912F
:100110000F900FBE0F901F9018951F920F920FB661
:100120000F9211242F933F938F939F93EF93FF93FD
:100130008091C60020910A0130910B0121153105F3
:1001400021F021303105A1F042C08E3B09F03FC0C3
:1001500081E090E090930B0180930A018CE091E0A4
:10016000909301018093000180916F008D7F14C0F6
:10017000803C39F48DE091E090930101809300017F
:1001800026C08E3D61F482E090E090930B01809355
:100190000A0180916F00826080936F0018C08130E7
:1001A00031F4E0910001F09101018FEF0FC0811156
:1001B00006C0E0910001F0910101108208C0803179
:1001C00031F4E0910001F091010181E08083FF9121
:1001D000EF919F918F913F912F910F900FBE0F90B4
:1001E0001F901895109280008CE08093810082E02F
:1001F00080936F0008958AB18C618AB95A988AB148
:10020000806E8AB95D980895181654F42BB181E078
:1002100090E001C0880F6A95EAF7809582230AC0B2
:100220008823D9F02BB181E090E001C0880F6A9556
:10023000EAF7822B8BB92BB181E090E001C0880FE7
:100240004A95EAF7922F982B9BB925E32A95F1F767
:1002500000009BB1809589238BB908950E943601D7
:100260000E94F2000E94FB00789408951092C5004D
:1002700089E18093C400E0ECF0E080818D7F808391
:1002800088E98093C10086E08093C2000895909130
:10029000C00095FFFCCF8093C6000895CF93DF93F5
:1002A000C82F64E60E943F02D92F805D0E9447015B
:1002B0002AE08C2F622F0E943F020E943F0280E3BF
:1002C000890F0E94470180E38D0FDF91CF910C943D
:1002D0004701EF92FF920F931F93CF93DF938C010F
:1002E000CFE0D0E0EE24E394F12CC7010C2E02C045
:1002F000880F991F0A94E2F780239123892B11F02C
:1003000081E301C080E30E944701219770F7DF91EC
:10031000CF911F910F91FF90EF9008950F931F932E
:10032000CF938C01C0E0F801EC0FF11D8081882390
:1003300021F00E944701CF5FF6CFCF911F910F911F
:1003400008954F925F926F927F928F929F92AF9299
:10035000BF92CF92DF92EF92FF920F931F93CF93B2
:10036000DF93CDB7DEB76F970FB6F894DEBF0FBE41
:10037000CDBF9E012F5F3F4F79016115710581054A
:10038000910531F480E38983CC24C394D12C42C0FD
:1003900097FF0CC02DE2298390958095709561950B
:1003A0007F4F8F4F9F4F01E010E002C000E010E050
:1003B0005701A00EB11E45012AE0422E512C612C9E
:1003C000712C68013FEFC31AD30AA30192010E9466
:1003D0004B02605DD4016D934D01B901CA016115F5
:1003E00071058105910511F08601EBCFF701E00F52
:1003F000F11F9F012E193F09C5018E199F09821710
:10040000930744F4D5018C9190819D935D01808385
:100410003197EFCFF701EC0DFD1D1082C7010E944F
:100420008E016F960FB6F894DEBF0FBECDBFDF9181
:10043000CF911F910F91FF90EF90DF90CF90BF90E1
:10044000AF909F908F907F906F905F904F900895A6
:100450000E942E0181E090E09093890080938800B3
:1004600080910A0190910B010397D1F782E091E00E
:100470000E948E0110920B0110920A01F1CF991B7C
:1004800079E004C0991F961708F0961B881F7A958B
:10049000C9F780950895052E97FB1EF400940E94DD
:1004A000620257FD07D00E946A0207FC03D04EF497
:1004B0000C94620250954095309521953F4F4F4FD7
:1004C0005F4F089590958095709561957F4F8F4F00
:1004D0009F4F0895A1E21A2EAA1BBB1BFD010DC060
:1004E000AA1FBB1FEE1FFF1FA217B307E407F507E4
:1004F00020F0A21BB30BE40BF50B661F771F881FC0
:10050000991F1A9469F760957095809590959B0155
:0C051000AC01BD01CF010895F894FFCFAD
:0A051C000C01444F4E450D0A00008B
:00000001FF
