:100000000C9434000C9446000C9446000C9446006A
:100010000C9446000C9446000C9446000C94460048
:100020000C9446000C9446000C9446000C94480036
:100030000C9446000C9446000C9446000C94460028
:100040000C9446000C9446000C9446000C94460018
:100050000C9446000C9446000C9446000C94460008
:100060000C9446000C94460011241FBECFEFD8E03C
:10007000DEBFCDBF21E0A0E0B1E001C01D92AD31F7
:10008000B207E1F70E9413030C94A0040C94000043
:100090001F920F920FB60F9211248F9381E08093DD
:1000A00000018F910F900FBE0F901F901895CF9366
:1000B000DF9384E00E94700145E051E062E071E06E
:1000C00081E091E00E94290185E091E00E945601C3
:1000D000C1E0D1E0998788872C853D85A901481B1F
:1000E000590BCA010E946401998B888B82E00E949F
:1000F000700147E051E064E071E083E091E00E942C
:10010000290187E091E00E945D019B878A872E8507
:100110003F85A901481B590BCA010E9464019B8BB2
:100120008A8BDF91CF910895609111017091120136
:1001300084E00E94900183E00C94AA016091130175
:100140007091140187E00E94900186E00C94AA014E
:10015000209111013091120137FF03C03195219593
:100160003109609113017091140177FF03C07195FB
:100170006195710981E090E06217730760F49093D4
:100180001A0180931901C9010E94950370931C0103
:1001900060931B01089590931C0180931B01CB0178
:1001A000B9010E94950370931A0160931901089593
:1001B000109280008CE08093810082E080936F0039
:1001C00088E391E09093890080938800089588E403
:1001D0008093B8001092B90084E08093BC00089529
:1001E00084EA8093BC008091BC0087FFFCCF089517
:1001F00084E98093BC0008958093BB0084E88093D9
:10020000BC008091BC0087FFFCCF089584EC8093F4
:10021000BC008091BC0087FFFCCF8091BB0008959B
:1002200084E88093BC008091BC0087FFFCCF809164
:10023000BB0008950E94F0008CE60E94FC0087E05D
:100240000E94FC0083E00E94FC0084E98093BC00D3
:100250000895EF92FF920F931F93CF93DF93EC01DA
:100260007B018A010E94F0008CE60E94FC008EE077
:100270000E94FC000E94F0008DE60E94FC000E949B
:10028000060188830E941001F7018083288190E095
:10029000922BF8019183808384E98093BC00DF91E5
:1002A000CF911F910F91FF90EF900895FC018081F5
:1002B000918187519A4F9F700895FC0180819181AF
:1002C0008A529D4F9F700895813028E0920714F064
:1002D00090510895811528EF92070CF4905F0895CE
:1002E000CF93C82F0E94F00080EE0E94FC0081E0B6
:1002F00001C0880FCA95EAF70E94FC0084E9809348
:10030000BC008AE18A95F1F700C0CF9108958AB1C7
:100310008C618AB95A988AB1806E8AB95D980895BD
:100320004BB121E030E06B30710554F0B90102C0EF
:10033000660F771F8A95E2F7CB018095842308C06A
:10034000B90102C0660F771F8A95E2F7CB01842BB3
:100350008BB908954BB121E030E0B90102C0660FBE
:10036000771F8A95E2F7CB01462B4BB9EFE8F1E016
:100370003197F1F700C000009BB1809589238BB9BC
:100380008FE891E00197F1F700C00000089597FF12
:1003900003C09195819591090895681779070CF428
:1003A000BC01CB010895861797070CF4BC01CB0163
:1003B000089577FF03C07195619571099C0197FFBE
:1003C00003C0319521953109CB01621773070CF4F5
:1003D000C901261737070CF4B9010E94A903CB0104
:1003E00008951092C50089E18093C400E0ECF0E02C
:1003F00080818D7F808388E98093C10086E080932F
:10040000C20008959091C00095FFFCCF8093C60074
:100410000895CF93DF93C82F64E60E948903D92FF4
:10042000805D0E9402022AE08C2F622F0E948903C5
:100430000E94890380E3890F0E94020280E38D0FEE
:10044000DF91CF910C940202EF92FF920F931F93D2
:10045000CF93DF938C01CFE0D0E0EE24E394F12C36
:10046000C7010C2E02C0880F991F0A94E2F780235F
:100470009123892B11F081E301C080E30E940202E5
:10048000219770F7DF91CF911F910F91FF90EF901F
:1004900008950F931F93CF938C01C0E0F801EC0FE8
:1004A000F11D8081882321F00E940202CF5FF6CFE8
:1004B000CF911F910F9108952F923F924F925F928B
:1004C0006F927F928F929F92AF92BF92CF92DF9264
:1004D000EF92FF920F931F93CF93DF93CDB7DEB7C9
:1004E0006D970FB6F894DEBF0FBECDBF29013A015C
:1004F0004B011C01A0E00E94940439F480E389833D
:1005000021E030E03B8F2A8F68C0A0E00E94940475
:1005100074F48DE28983822D0E944D0429013A01F1
:100520004B011C0181E090E09F8B8E8B02C01F8AE3
:100530001E8AA1E0B0E0AC0FBD1FEE89FF89AE0FAF
:10054000BF1FB98FA88FBD8FAC8F8E899F890196F1
:100550009B8F8A8F8AE0A82EB12CC12CD12CE12C44
:10056000F12C00E010E09201A301B401C1010E944E
:10057000BD03205DAC8DBD8D2D93BD8FAC8F9201E1
:10058000A301B401C1010E94BF0329013A014B013B
:100590001C01A0E00E94940429F02A8D3B8D3F8B22
:1005A0002E8BD3CF9E012F5F3F4FEE89FF89E20F45
:1005B000F31FAF01421B530B888D998D821B930B48
:1005C0008417950754F4A88DB98D8C9190819D93D3
:1005D000B98FA88F80833197ECCFE1E0F0E0EC0F8A
:1005E000FD1F2A8D3B8DE20FF31F1082CE01019675
:1005F0000E9449026D960FB6F894DEBF0FBECDBFC4
:10060000DF91CF911F910F91FF90EF90DF90CF90EE
:10061000BF90AF909F908F907F906F905F904F9022
:100620003F902F9008950E94F1010E94E7000E94E0
:10063000D8000E948701789480E09CE090930E019E
:1006400080930D019093100180930F010E94570039
:100650000E94A80080911101909112010A9645977D
:1006600038F480911301909114010A96459770F324
:100670001092160110921501109218011092170194
:1006800080911101909112010A964597C8F10E943C
:1006900057000E94A80080910001882389F31092DE
:1006A00000018091150190911601609119017091DE
:1006B0001A010E949503892B11F40E9494008091E5
:1006C00017019091180160911B0170911C010E940B
:1006D0009503892B11F40E949E0080911501909141
:1006E00016010196909316018093150180911701D0
:1006F0009091180101969093180180931701C0CF33
:1007000080911301909114010A96459708F0BFCF8C
:100710009DCF991B79E004C0991F961708F0961B8E
:10072000881F7A95C9F780950895AA1BBB1B51E1D4
:1007300007C0AA1FBB1FA617B70710F0A61BB70B51
:10074000881F991F5A95A9F780959095BC01CD01F6
:10075000089597FB072E16F4009407D077FD09D073
:100760000E94950307FC05D03EF4909581959F4F1C
:100770000895709561957F4F0895689401C0E8943D
:10078000F92FF12B12F00C94F103A0E0B0E0EBECA8
:10079000F3E00C946304092E059422F40E944D04A6
:1007A000112392F4F0E80F26FFEFE094F094009507
:1007B0001095B094C094D094A194BF0ACF0ADF0AD8
:1007C000EF0AFF0A0F0B1F0B0E94FC0307FC0E949D
:1007D0004D04CDB7DEB7ECE00C947F04689401C003
:1007E000E8948F929F92CF93DF930E94FC03DF9156
:1007F000CF919F908F90089588249924F401E4016B
:10080000B0E49F93AA279A158B049C04ED05FE057E
:10081000CF05D007A10798F4AD2FDC2FCF2FFE2FE7
:10082000E92D982C892E982F872F762F652F542FFE
:10083000432F322F2227B85031F7BF9127C01B2EEC
:10084000BF91BB27220F331F441F551F661F771F01
:10085000881F991F881C991CEE1FFF1FCC1FDD1FCE
:10086000AA1FBB1F8A149B04EC05FD05CE05DF05FE
:10087000A007B10748F08A189B08EC09FD09CE09CA
:10088000DF09A00BB10B21601A94E1F62EF494015C
:10089000AF01BE01CD01000C089560957095809563
:1008A000909530954095509521953F4F4F4F5F4F14
:1008B0006F4F7F4F8F4F9F4F08952F923F924F92D0
:1008C0005F926F927F928F929F92AF92BF92CF92E0
:1008D000DF92EF92FF920F931F93CF93DF93CDB7E9
:1008E000DEB7CA1BDB0B0FB6F894DEBF0FBECDBF61
:1008F00009942A88398848885F846E847D848C8432
:100900009B84AA84B984C884DF80EE80FD800C813A
:100910001B81AA81B981CE0FD11D0FB6F894DEBF1D
:100920000FBECDBFED0108950024A7FD00942A1746
:100930003005400550056005700580059005089557
:04094000F894FFCF59
:00000001FF
