:100000000C9434000C9451000C9451000C94510049
:100010000C9451000C9451000C9451000C9451001C
:100020000C9451000C9451000C9451000C9453000A
:100030000C9451000C9451000C9451000C945100FC
:100040000C9451000C9451000C946A000C945100D3
:100050000C9451000C9451000C9451000C945100DC
:100060000C9451000C94510011241FBECFEFD8E026
:10007000DEBFCDBF11E0A0E0B1E0E6E8F5E002C0F0
:1000800005900D92AA30B107D9F721E0AAE0B1E0BE
:1000900001C01D92A739B207E1F70E941D020C941E
:1000A000C1020C9400001F920F920FB60F92112400
:1000B0008F939F9380910A0190910B01029719F4FD
:1000C00081E0809316019F918F910F900FBE0F904A
:1000D0001F9018951F920F920FB60F9211242F9315
:1000E0003F938F939F93AF93BF93EF93FF93809131
:1000F000C60020910A0130910B012115310521F034
:100100002130310591F056C08E3B09F053C010925A
:100110000D0110920C0181E090E090930B0180930F
:100120000A0180916F008D7F19C08F3ED1F48091BC
:100130000C0190910D01A0E0B0E080930E0190932E
:100140000F01A0931001B093110182E090E0909311
:100150000B0180930A0180916F00826080936F0091
:1001600029C020910C0130910D012038310510F586
:1001700020910C0130910D01E0910C01F0910D01E5
:10018000F695E79520FD07C090E0C097880F991F6E
:10019000E95EFE4F05C0E95EFE4F90818053892BDA
:1001A000808380910C0190910D01019690930D0137
:1001B00080930C01FF91EF91BF91AF919F918F912F
:1001C0003F912F910F900FBE0F901F9018950E9496
:1001D0002B010E94EF000E94F8007894089510927D
:1001E00080008CE08093810082E080936F0008950E
:1001F0008AB18C618AB95A988AB1806E8AB95D9841
:100200000895181654F42BB181E090E001C0880FD6
:100210006A95EAF7809582230AC08823D9F02BB12A
:1002200081E090E001C0880F6A95EAF7822B8BB9D4
:100230002BB181E090E001C0880F4A95EAF7922F38
:10024000982B9BB925E32A95F1F700009BB1809587
:1002500089238BB908951092C50089E18093C40069
:10026000E0ECF0E080818D7F808388E98093C1009D
:1002700086E08093C20008959091C00095FFFCCF66
:100280008093C6000895CF93DF93C82F64E60E9441
:100290007402D92F805D0E943C012AE08C2F622FCE
:1002A0000E9474020E94740280E3890F0E943C0144
:1002B00080E38D0FDF91CF910C943C01EF92FF9280
:1002C0000F931F93CF93DF938C01CFE0D0E0EE2408
:1002D000E394F12CC7010C2E02C0880F991F0A94D9
:1002E000E2F780239123892B11F081E301C080E3A1
:1002F0000E943C01219770F7DF91CF911F910F91E0
:10030000FF90EF9008950F931F93CF938C01C0E05F
:10031000F801EC0FF11D8081882321F00E943C013F
:10032000CF5FF6CFCF911F910F9108954F925F92BB
:100330006F927F928F929F92AF92BF92CF92DF92F5
:10034000EF92FF920F931F93CF93DF93CDB7DEB75A
:100350006F970FB6F894DEBF0FBECDBF9E012F5F23
:100360003F4F7901611571058105910531F480E3F5
:100370008983CC24C394D12C42C097FF0CC02DE2BA
:10038000298390958095709561957F4F8F4F9F4FF2
:1003900001E010E002C000E010E05701A00EB11E25
:1003A00045012AE0422E512C612C712C68013FEF4F
:1003B000C31AD30AA30192010E948002605DD40196
:1003C0006D934D01B901CA01611571058105910552
:1003D00011F08601EBCFF701E00FF11F9F012E19FD
:1003E0003F09C5018E199F098217930744F4D5016F
:1003F0008C9190819D935D0180833197EFCFF701C0
:10040000EC0DFD1D1082C7010E9483016F960FB68F
:10041000F894DEBF0FBECDBFDF91CF911F910F913A
:10042000FF90EF90DF90CF90BF90AF909F908F9014
:100430007F906F905F904F9008950E94E70082E355
:1004400090E0909389008093880080910A019091B8
:100450000B010297D1F7809116018823B1F3109216
:10046000160180E090E0DC0140910E0150910F01F7
:1004700060911001709111016C017D012FEFC21A82
:10048000D20AE20AF20A769567955795479584173E
:100490009507A607B70790F4FC01E95EFE4F60815F
:1004A000062E000C770B880B990B0E94960180E0BA
:1004B00091E00E948301D701C601D6CF86E091E08A
:1004C0000E9483018FEF91EE24E081509040204004
:1004D000E1F700C0000082E091E00E9483011092E9
:1004E0000B0110920A01B1CF991B79E004C0991F4A
:1004F000961708F0961B881F7A95C9F7809508957E
:10050000052E97FB1EF400940E94970257FD07D01A
:100510000E949F0207FC03D04EF40C949702509562
:100520004095309521953F4F4F4F5F4F08959095DF
:100530008095709561957F4F8F4F9F4F0895A1E2F1
:100540001A2EAA1BBB1BFD010DC0AA1FBB1FEE1F4D
:10055000FF1FA217B307E407F50720F0A21BB30B98
:10056000E40BF50B661F771F881F991F1A9469F714
:1005700060957095809590959B01AC01BD01CF0170
:060580000895F894FFCF7E
:0A0586002000444F4E450D0A00000E
:00000001FF
