:100000000C9434000C9451000C9451000C94510049
:100010000C9451000C9451000C9451000C9451001C
:100020000C9451000C9451000C9451000C9453000A
:100030000C9451000C9451000C9451000C945100FC
:100040000C9451000C9451000C9466000C945100D7
:100050000C9451000C9451000C9451000C945100DC
:100060000C9451000C94510011241FBECFEFD8E026
:10007000DEBFCDBF11E0A0E0B1E0ECE4F5E002C0EE
:1000800005900D92AC30B107D9F721E0ACE0B1E0BA
:1000900001C01D92A939B207E1F70E940D020C942C
:1000A000A4020C9400001F920F920FB60F9211241D
:1000B0008F9380910D01811103C081E0809318011D
:1000C0008F910F900FBE0F901F9018951F920F9257
:1000D0000FB60F9211242F933F938F939F93AF935B
:1000E000BF93EF93FF938091C6008E3B59F410921B
:1000F0000F0110920E0181E080930D0180916F003D
:100100008D7F18C08F3EC9F480910E0190910F0130
:10011000A0E0B0E08093100190931101A093120130
:10012000B093130110920D0181E080930C01809136
:100130006F00826080936F002DC090910D01992314
:1001400049F120910E0130910F012038310510F551
:1001500020910E0130910F01E0910E01F0910F01FD
:10016000F695E79520FD07C090E0C097880F991F8E
:10017000E75EFE4F05C0E75EFE4F90818053892BFE
:10018000808380910E0190910F01019690930F0151
:1001900080930E01FF91EF91BF91AF919F918F914D
:1001A0003F912F910F900FBE0F901F9018950E94B6
:1001B0001B010E94DF000E94E800789408951092CD
:1001C00080008CE08093810082E080936F0008952E
:1001D0008AB18C618AB95A988AB1806E8AB95D9861
:1001E0000895181654F42BB181E090E001C0880FF7
:1001F0006A95EAF7809582230AC08823D9F02BB14B
:1002000081E090E001C0880F6A95EAF7822B8BB9F4
:100210002BB181E090E001C0880F4A95EAF7922F58
:10022000982B9BB925E32A95F1F700009BB18095A7
:1002300089238BB908951092C50089E18093C40089
:10024000E0ECF0E080818D7F808388E98093C100BD
:1002500086E08093C20008959091C00095FFFCCF86
:100260008093C6000895CF93DF93C82F64E60E9461
:100270005702D92F805D0E942C012AE08C2F622F1B
:100280000E9457020E94570280E3890F0E942C01AE
:1002900080E38D0FDF91CF910C942C01EF92FF92B0
:1002A0000F931F93CF93DF938C01CFE0D0E0EE2428
:1002B000E394F12CC7010C2E02C0880F991F0A94F9
:1002C000E2F780239123892B11F081E301C080E3C1
:1002D0000E942C01219770F7DF91CF911F910F9110
:1002E000FF90EF9008950F931F93CF938C01C0E080
:1002F000F801EC0FF11D8081882321F00E942C0170
:10030000CF5FF6CFCF911F910F9108954F925F92DB
:100310006F927F928F929F92AF92BF92CF92DF9215
:10032000EF92FF920F931F93CF93DF93CDB7DEB77A
:100330006F970FB6F894DEBF0FBECDBF9E012F5F43
:100340003F4F7901611571058105910531F480E315
:100350008983CC24C394D12C42C097FF0CC02DE2DA
:10036000298390958095709561957F4F8F4F9F4F12
:1003700001E010E002C000E010E05701A00EB11E45
:1003800045012AE0422E512C612C712C68013FEF6F
:10039000C31AD30AA30192010E946302605DD401D3
:1003A0006D934D01B901CA01611571058105910572
:1003B00011F08601EBCFF701E00FF11F9F012E191D
:1003C0003F09C5018E199F098217930744F4D5018F
:1003D0008C9190819D935D0180833197EFCFF701E0
:1003E000EC0DFD1D1082C7010E9473016F960FB6C0
:1003F000F894DEBF0FBECDBFDF91CF911F910F915B
:10040000FF90EF90DF90CF90BF90AF909F908F9034
:100410007F906F905F904F9008950E94D70082E385
:1004200090E0909389008093880080911801882340
:10043000E1F31092180180910C018823B1F380E060
:1004400090E0DC0140911001509111016091120186
:10045000709113016C017D012FEFC21AD20AE20ADA
:10046000F20A769567955795479584179507A607DD
:10047000B70790F4FC01E75EFE4F6081062E000C8A
:10048000770B880B990B0E94860180E091E00E9417
:100490007301D701C601D6CF82E091E00E947301BB
:1004A00088E091E00E94730110920C01BECF991B6D
:1004B00079E004C0991F961708F0961B881F7A955B
:1004C000C9F780950895052E97FB1EF400940E94AD
:1004D0007A0257FD07D00E94820207FC03D04EF437
:1004E0000C947A0250954095309521953F4F4F4F8F
:1004F0005F4F089590958095709561957F4F8F4FD0
:100500009F4F0895A1E21A2EAA1BBB1BFD010DC02F
:10051000AA1FBB1FEE1FFF1FA217B307E407F507B3
:1005200020F0A21BB30BE40BF50B661F771F881F8F
:10053000991F1A9469F760957095809590959B0125
:0C054000AC01BD01CF010895F894FFCF7D
:0C054C0020005245414459000D0A0000F7
:00000001FF
