:100000000C9434000C9451000C9451000C94510049
:100010000C9451000C9451000C9451000C9451001C
:100020000C9451000C9451000C9451000C9453000A
:100030000C9451000C9451000C9451000C945100FC
:100040000C9451000C9451000C9451000C945100EC
:100050000C9451000C9451000C9451000C945100DC
:100060000C9451000C94510011241FBECFEFD8E026
:10007000DEBFCDBF11E0A0E0B1E0E2E0FBE002C0F6
:1000800005900D92A033B107D9F721E0A0E3B1E0CC
:1000900001C01D92A035B207E1F70E9499030C94AC
:1000A0007F050C9400001F920F920FB60F9211243F
:1000B0008F9381E0809331018F910F900FBE0F904D
:1000C0001F901895CF93DF9384E00E94F60148E3D8
:1000D00051E065E371E084E391E00E94AF0188E3C1
:1000E00091E00E94DC01C4E3D1E0998788872C85E8
:1000F0003D85A901481B590BCA010E94EA01998B51
:10010000888B82E00E94F6014AE351E067E371E0E8
:1001100086E391E00E94AF018AE391E00E94E3014F
:100120009B878A872E853F85A901481B590BCA01E9
:100130000E94EA019B8B8A8BDF91CF910895609199
:1001400044017091450184E00E94160283E00C9402
:100150003002609146017091470187E00E941602CB
:1001600086E00C943002209144013091450137FF24
:1001700003C0319521953109609146017091470185
:1001800077FF03C071956195710981E090E0621776
:10019000730760F490934D0180934C01C9010E9454
:1001A000680470934F0160934E01089590934F013E
:1001B00080934E01CB01B9010E94680470934D01F8
:1001C00060934C010895CF93DF93EC0188818111F6
:1001D0001CC00E94620080914401909145010296EA
:1001E000059740F48091460190914701029605974A
:1001F00008F461C0109249011092480110924B011D
:1002000010924A0181E0888356C080913101882391
:1002100009F451C0109231010E9462000E94B300A3
:1002200080914401909145010296059740F4809198
:100230004601909147010296059708F41882809133
:100240004401909145010296059770F08091480114
:100250009091490160914C0170914D010E94680498
:10026000892B11F40E949F008091460190914701D3
:100270000296059770F080914A0190914B01609130
:100280004E0170914F010E946804892B11F40E9465
:10029000A9008091480190914901019690934901EC
:1002A0008093480180914A0190914B01019690936F
:1002B0004B0180934A01DF91CF9108951092800005
:1002C0008CE08093810082E080936F0088EC90E066
:1002D0009093890080938800089588E48093B80003
:1002E0001092B90084E08093BC00089584EA809362
:1002F000BC008091BC0087FFFCCF089584E9809307
:10030000BC0008958093BB0084E88093BC0080917A
:10031000BC0087FFFCCF089584EC8093BC008091E3
:10032000BC0087FFFCCF8091BB00089584E88093D8
:10033000BC008091BC0087FFFCCF8091BB0008957A
:100340000E9476018CE60E94820187E00E94820171
:1003500083E00E94820184E98093BC000895EF92BB
:10036000FF920F931F93CF93DF93EC017B018A01E0
:100370000E9476018CE60E9482018EE00E9482013A
:100380000E9476018DE60E9482010E948C01888382
:100390000E949601F7018083288190E0922BF8015A
:1003A0009183808384E98093BC00DF91CF911F917A
:1003B0000F91FF90EF900895FC018081918187510A
:1003C0009A4F9F700895FC01808191818A529D4FC0
:1003D0009F700895813028E0920714F0905108959D
:1003E000811528EF92070CF4905F0895CF93C82FE2
:1003F0000E94760180EE0E94820181E001C0880F98
:10040000CA95EAF70E94820184E98093BC008AE1E0
:100410008A95F1F700C0CF9108958AB18C618AB9AD
:100420005A988AB1806E8AB95D9808954BB121E0DF
:1004300030E06330710554F0B90102C0660F771FD8
:100440008A95E2F7CB018095842308C0B90102C0E8
:10045000660F771F8A95E2F7CB01842B8BB908953D
:100460004BB121E030E0B90102C0660F771F8A95D9
:10047000E2F7CB01462B4BB9EFE8F1E03197F1F70A
:1004800000C000009BB1809589238BB98FE891E073
:100490000197F1F700C00000089597FF03C0919500
:1004A000819591090895681779070CF4BC01CB0177
:1004B0000895861797070CF4BC01CB01089577FFC8
:1004C00003C07195619571099C0197FF03C0319537
:1004D00021953109CB01621773070CF4C901261766
:1004E00037070CF4B9010E947C04CB0108951092E7
:1004F000C50089E18093C400E0ECF0E080818D7F4D
:10050000808388E98093C10086E08093C2000895CB
:100510009091C00095FFFCCF8093C6000895CF93C3
:10052000DF93C82F64E60E945C04D92F805D0E948F
:1005300088022AE08C2F622F0E945C040E945C04D7
:1005400080E3890F0E94880280E38D0FDF91CF91B5
:100550000C948802EF92FF920F931F93CF93DF9337
:100560008C01CFE0D0E0EE24E394F12CC7010C2EF7
:1005700002C0880F991F0A94E2F780239123892BE8
:1005800011F081E301C080E30E948802219770F797
:10059000DF91CF911F910F91FF90EF9008950F93EE
:1005A0001F93CF938C01C0E0F801EC0FF11D808107
:1005B000882321F00E948802CF5FF6CFCF911F9150
:1005C0000F9108952F923F924F925F926F927F9278
:1005D0008F929F92AF92BF92CF92DF92EF92FF9253
:1005E0000F931F93CF93DF93CDB7DEB76D970FB601
:1005F000F894DEBF0FBECDBF29013A014B011C01AB
:10060000A0E00E94730539F480E3898321E030E0A3
:100610003B8F2A8F68C0A0E00E94730574F48DE2BE
:100620008983822D0E94200529013A014B011C017A
:1006300081E090E09F8B8E8B02C01F8A1E8AA1E012
:10064000B0E0AC0FBD1FEE89FF89AE0FBF1FB98FA1
:10065000A88FBD8FAC8F8E899F8901969B8F8A8FC3
:100660008AE0A82EB12CC12CD12CE12CF12C00E079
:1006700010E09201A301B401C1010E949004205D29
:10068000AC8DBD8D2D93BD8FAC8F9201A301B401B4
:10069000C1010E94920429013A014B011C01A0E012
:1006A0000E94730529F02A8D3B8D3F8B2E8BD3CF73
:1006B0009E012F5F3F4FEE89FF89E20FF31FAF01CD
:1006C000421B530B888D998D821B930B84179507C2
:1006D00054F4A88DB98D8C9190819D93B98FA88F7A
:1006E00080833197ECCFE1E0F0E0EC0FFD1F2A8D25
:1006F0003B8DE20FF31F1082CE0101960E94CF02C4
:100700006D960FB6F894DEBF0FBECDBFDF91CF91CF
:100710001F910F91FF90EF90DF90CF90BF90AF901F
:100720009F908F907F906F905F904F903F902F9011
:100730000895CF93DF93CDB7DEB760970FB6F894E7
:10074000DEBF0FBECDBF0E9477020E946D010E94E6
:100750005E010E940D02789488E0E0E0F1E0DE01A5
:10076000199601900D928A95E1F788E0E8E0F1E0B2
:10077000DE01119601900D928A95E1F7552453946C
:100780005E0129E0A20EB11CCE0101964C01C12CE4
:10079000D12CE12CF12C00E010E0612C712CF50142
:1007A000819191915F019093410180934001F40107
:1007B000819191914F019093430180934201509216
:1007C0003001809132019091330101969093330171
:1007D0008093320180913001813029F480E391E0EF
:1007E0000E94E300F7CF80E191E00E94CF024091A8
:1007F0003201509133019A0140E050E060E070E036
:1008000080E090E00E94E20287E191E00E94CF0246
:1008100089E191E00E94CF029601A701B801C301CE
:100820000E94E20287E191E00E94CF028FE191E015
:100830000E94CF023091450120914401932F990FDE
:10084000990B492F592F692F792F892F0E94E20286
:1008500087E191E00E94CF0286E291E00E94CF0200
:100860003091470120914601932F990F990B492F01
:10087000592F692F792F892F0E94E2028DE291E092
:100880000E94CF02FFEF23ED80E3F1502040804033
:10089000E1F700C000009601A701B801C301A1E083
:1008A0000E94670569017A018B013C01A4E00E9466
:1008B000730509F074CF64CF991B79E004C0991FC8
:1008C000961708F0961B881F7A95C9F780950895AA
:1008D000AA1BBB1B51E107C0AA1FBB1FA617B70766
:1008E00010F0A61BB70B881F991F5A95A9F7809582
:1008F0009095BC01CD01089597FB072E16F4009446
:1009000007D077FD09D00E94680407FC05D03EF4AB
:10091000909581959F4F0895709561957F4F0895AB
:10092000689401C0E894F92FF12B12F00C94C404E0
:10093000A0E0B0E0EEE9F4E00C943605092E059451
:1009400022F40E942005112392F4F0E80F26FFEF15
:10095000E094F09400951095B094C094D094A19434
:10096000BF0ACF0ADF0AEF0AFF0A0F0B1F0B0E9414
:10097000CF0407FC0E942005CDB7DEB7ECE00C9455
:100980005205689401C0E8948F929F92CF93DF93B1
:100990000E94CF04DF91CF919F908F90089588247B
:1009A0009924F401E401B0E49F93AA279A158B04DB
:1009B0009C04ED05FE05CF05D007A10798F4AD2FE7
:1009C000DC2FCF2FFE2FE92D982C892E982F872FE3
:1009D000762F652F542F432F322F2227B85031F70F
:1009E000BF9127C01B2EBF91BB27220F331F441F6F
:1009F000551F661F771F881F991F881C991CEE1FA3
:100A0000FF1FCC1FDD1FAA1FBB1F8A149B04EC0510
:100A1000FD05CE05DF05A007B10748F08A189B0841
:100A2000EC09FD09CE09DF09A00BB10B21601A9476
:100A3000E1F62EF49401AF01BE01CD01000C089542
:100A4000609570958095909530954095509521953D
:100A50003F4F4F4F5F4F6F4F7F4F8F4F9F4F0895C7
:100A60002F923F924F925F926F927F928F929F92BE
:100A7000AF92BF92CF92DF92EF92FF920F931F93AC
:100A8000CF93DF93CDB7DEB7CA1BDB0B0FB6F8945D
:100A9000DEBF0FBECDBF09942A88398848885F849D
:100AA0006E847D848C849B84AA84B984C884DF800E
:100AB000EE80FD800C811B81AA81B981CE0FD11DF2
:100AC0000FB6F894DEBF0FBECDBFED010895002430
:100AD000A7FD00942A0F301D401D501D601D701D84
:100AE000801D901D08950024A7FD00942A1730054D
:100AF0004005500560057005800590050895F8943F
:020B0000FFCF25
:100B0200C90FDE0F7F0C0E0D3608F10A800B21088B
:100B1200697465723A20000900706F733A200065AB
:100B22007272413A2000657272423A20000D0A0048
:00000001FF
