:100000000C9434000C9451000C9451000C94510049
:100010000C9451000C9451000C9451000C9451001C
:100020000C9451000C9451000C9451000C9453000A
:100030000C9451000C9451000C9451000C945100FC
:100040000C9451000C9451000C9462000C945100DB
:100050000C9451000C9451000C9451000C945100DC
:100060000C9451000C94510011241FBECFEFD8E026
:10007000DEBFCDBF11E0A0E0B1E0E2E0F5E002C0FC
:1000800005900D92AA35B107D9F721E0AAE5B1E0B4
:1000900001C01D92AF35B207E1F70E94A2010C9496
:1000A0007F020C9400001F920F920FB60F92112442
:1000B0008F9381E080935E018F910F900FBE0F9020
:1000C0001F9018951F920F920FB60F9211240F9048
:1000D0000FBE0F901F9018950E94B0000E947400F0
:1000E0000E947D0078940895109280008CE08093A7
:1000F000810082E080936F0008958AB18C618AB993
:100100005A988AB1806E8AB95D980895181654F489
:100110002BB181E090E001C0880F6A95EAF78095E5
:1001200082230AC08823D9F02BB181E090E001C07E
:10013000880F6A95EAF7822B8BB92BB181E090E0AA
:1001400001C0880F4A95EAF7922F982B9BB925E3B7
:100150002A95F1F700009BB1809589238BB908950A
:100160001092C50089E18093C400E0ECF0E080814A
:100170008D7F808388E98093C10086E08093C200F0
:1001800008959091C00095FFFCCF8093C60008951C
:10019000CF93DF93C82F64E60E943202D92F805D8F
:1001A0000E94C1002AE08C2F622F0E9432020E941E
:1001B000320280E3890F0E94C10080E38D0FDF913E
:1001C000CF910C94C100EF92FF920F931F93CF93A6
:1001D000DF938C01CFE0D0E0EE24E394F12CC70153
:1001E0000C2E02C0880F991F0A94E2F780239123F6
:1001F000892B11F081E301C080E30E94C1002197A7
:1002000070F7DF91CF911F910F91FF90EF900895BC
:100210000F931F93CF938C01C0E0F801EC0FF11DF9
:100220008081882321F00E94C100CF5FF6CFCF915B
:100230001F910F9108954F925F926F927F928F92CC
:100240009F92AF92BF92CF92DF92EF92FF920F9365
:100250001F93CF93DF93CDB7DEB76F970FB6F894A8
:10026000DEBF0FBECDBF9E012F5F3F4F79016115ED
:1002700071058105910531F480E38983CC24C39411
:10028000D12C42C097FF0CC02DE229839095809518
:10029000709561957F4F8F4F9F4F01E010E002C036
:1002A00000E010E05701A00EB11E45012AE0422EE9
:1002B000512C612C712C68013FEFC31AD30AA301A2
:1002C00092010E943E02605DD4016D934D01B9011F
:1002D000CA01611571058105910511F08601EBCF09
:1002E000F701E00FF11F9F012E193F09C5018E197B
:1002F0009F098217930744F4D5018C9190819D93B7
:100300005D0180833197EFCFF701EC0DFD1D108269
:10031000C7010E9408016F960FB6F894DEBF0FBEAA
:10032000CDBFDF91CF911F910F91FF90EF90DF90A4
:10033000CF90BF90AF909F908F907F906F905F9085
:100340004F900895CF93DF93CDB7DEB7C45BD1094B
:100350000FB6F894DEBF0FBECDBF0E946C0082E3E3
:1003600090E090938900809388008E01055A1F4F7A
:100370009AE5F801292F11922A95E9F78FEFF801F4
:10038000828B868F87A387A786AB84AFC356DF4F48
:100390008883CD59D040CD55DF4F8883C35AD04094
:1003A000C855DF4F8883C85AD040C255DF4F888375
:1003B000CE5AD040CD54DF4F8883C35BD040E0E0BD
:1003C000F1E0DE01119601900D929A95E1F780918E
:1003D0005E018823E1F310925E01E0915A01F091F1
:1003E0005B01E00FF11F43E064E080810E94860022
:1003F000E0915A01F0915B0181E090E08C0F9D1F2C
:10040000E80FF91F46E067E080810E948600809136
:100410005A0190915B01A0915C01B0915D01019640
:10042000A11DB11D8B359105A105B10548F480933F
:100430005A0190935B01A0935C01B0935D01C7CF1B
:1004400010925A0110925B0110925C0110925D01B2
:100450009FEFE7EAF1E69150E040F040E1F700C09D
:100460000000B5CF991B79E004C0991F961708F0DA
:10047000961B881F7A95C9F780950895052E97FBDE
:100480001EF400940E94550257FD07D00E945D02A1
:1004900007FC03D04EF40C945502509540953095CE
:1004A00021953F4F4F4F5F4F0895909580957095E0
:1004B00061957F4F8F4F9F4F0895A1E21A2EAA1B7F
:1004C000BB1BFD010DC0AA1FBB1FEE1FFF1FA21704
:1004D000B307E407F50720F0A21BB30BE40BF50B01
:1004E000661F771F881F991F1A9469F7609570958A
:1004F000809590959B01AC01BD01CF010895F894C2
:02050000FFCF2B
:10050200FFFFFFFFFFFFFFFFFFFFFFFFFFFFFFFFF9
:10051200FFFF00FFFFFFFFFFFFFFFFFFFFFF00FFE7
:10052200FFFFFFFFFFFFFF00FFFFFFFFFFFFFF00D7
:10053200FFFFFFFFFFFF00FFFFFFFFFF00FFFFFFC7
:10054200FFFF00FFFFFFFFFF00FFFFFFFF00FFFFB6
:0A055200FFFFFF00FFFFFFFF00FFA7
:00000001FF
