:100000000C9434000C9451000C9451000C94510049
:100010000C9451000C9451000C9451000C9451001C
:100020000C9451000C9451000C9451000C9453000A
:100030000C9451000C9451000C9451000C945100FC
:100040000C9451000C9451000C946A000C945100D3
:100050000C9451000C9451000C9451000C945100DC
:100060000C9451000C94510011241FBECFEFD8E026
:10007000DEBFCDBF11E0A0E0B1E0EAEBF5E002C0E9
:1000800005900D92AA30B107D9F725E0AAE0B1E0BA
:1000900001C01D92A331B207E1F70E9437020C9410
:1000A000DB020C9400001F920F920FB60F921124E6
:1000B0008F939F9380910A0190910B01029719F4FD
:1000C00081E0809312019F918F910F900FBE0F904E
:1000D0001F9018951F920F920FB60F9211242F9315
:1000E0003F938F939F93AF93BF93EF93FF93809131
:1000F000C60020910A0130910B012115310521F034
:1001000021303105C1F070C08E3B09F06DC01092F6
:100110000D0110920C0181E090E090930B0180930F
:100120000A0183E191E090930101809300018091A5
:100130006F008D7F26C0803C59F410920D01109203
:100140000C0183E193E090930101809300014CC086
:100150008E3DD1F480910C0190910D01A0E0B0E0B2
:1001600080930E0190930F01A0931001B0931101A1
:1001700082E090E090930B0180930A0180916F00E0
:10018000826080936F0030C020910C0130910D018E
:100190002115324048F520910C0130910D01E0917C
:1001A0000001F0910101805320FD0AC020910C0153
:1001B00030910D0136952795E20FF31F880F0AC085
:1001C00020910C0130910D0136952795E20FF31F18
:1001D0009081892B808380910C0190910D01019673
:1001E00090930D0180930C01FF91EF91BF91AF911E
:1001F0009F918F913F912F910F900FBE0F901F9065
:100200001895109280008CE08093810082E08093AA
:100210006F0008958AB18C618AB95A988AB1806E4C
:100220008AB95D980895823051F42BB181E090E055
:1002300001C0880F6A95EAF7809582230AC0813051
:10024000D9F42BB181E090E001C0880F6A95EAF7FC
:10025000822B8BB92BB181E090E001C0880F4A95C9
:10026000EAF7922F982B9BB925E32A95F1F7000026
:100270009BB1809589238BB908950E9445010E9406
:1002800001010E940A01789408951092C50089E145
:100290008093C400E0ECF0E080818D7F808388E96A
:1002A0008093C10086E08093C20008959091C000C1
:1002B00095FFFCCF8093C6000895CF93DF93C82F9E
:1002C00064E60E948E02D92F805D0E9456012AE0CA
:1002D0008C2F622F0E948E020E948E0280E3890F73
:1002E0000E94560180E38D0FDF91CF910C9456014F
:1002F000EF92FF920F931F93CF93DF938C01CFE088
:10030000D0E0EE24E394F12CC7010C2E02C0880F3C
:10031000991F0A94E2F780239123892B11F081E33E
:1003200001C080E30E945601219770F7DF91CF91C1
:100330001F910F91FF90EF9008950F931F93CF930C
:100340008C01C0E0F801EC0FF11D8081882321F0C1
:100350000E945601CF5FF6CFCF911F910F91089564
:100360004F925F926F927F928F929F92AF92BF92C5
:10037000CF92DF92EF92FF920F931F93CF93DF9371
:10038000CDB7DEB76F970FB6F894DEBF0FBECDBF07
:100390009E012F5F3F4F7901611571058105910520
:1003A00031F480E38983CC24C394D12C42C097FFDD
:1003B0000CC02DE2298390958095709561957F4FB3
:1003C0008F4F9F4F01E010E002C000E010E05701A6
:1003D000A00EB11E45012AE0422E512C612C712C39
:1003E00068013FEFC31AD30AA30192010E949A0247
:1003F000605DD4016D934D01B901CA0161157105AC
:100400008105910511F08601EBCFF701E00FF11F97
:100410009F012E193F09C5018E199F098217930765
:1004200044F4D5018C9190819D935D018083319737
:10043000EFCFF701EC0DFD1D1082C7010E949D0159
:100440006F960FB6F894DEBF0FBECDBFDF91CF9190
:100450001F910F91FF90EF90DF90CF90BF90AF90E2
:100460009F908F907F906F905F904F9008950E9423
:100470003D018AE698E190938900809388008091FD
:100480000A0190910B010297D1F780911201882304
:10049000B1F310921201C12CD12C760180910E0182
:1004A00090910F01A0911001B091110146015701E7
:1004B0002FEF821A920AA20AB20AB695A7959795CB
:1004C0008795C816D906EA06FB06F8F4F601ED5E34
:1004D000FE4F808143E064E00E9413018FE891E0C9
:1004E0000197F1F700C00000F601ED5EFC4F80813E
:1004F00046E067E00E9413018FE891E00197F1F771
:1005000000C0000075016401C9CF82E091E00E9443
:100510009D0110920B0110920A01B1CF991B79E055
:1005200004C0991F961708F0961B881F7A95C9F783
:1005300080950895052E97FB1EF400940E94B10249
:1005400057FD07D00E94B90207FC03D04EF40C946B
:10055000B10250954095309521953F4F4F4F5F4FD9
:10056000089590958095709561957F4F8F4F9F4F1F
:100570000895A1E21A2EAA1BBB1BFD010DC0AA1FE4
:10058000BB1FEE1FFF1FA217B307E407F50720F0FC
:10059000A21BB30BE40BF50B661F771F881F991F77
:1005A0001A9469F760957095809590959B01AC01C0
:0A05B000BD01CF010895F894FFCFBC
:0A05BA001301444F4E450D0A0000E6
:00000001FF
