:100000000C9434000C9451000C9451000C94510049
:100010000C9451000C9451000C9451000C9451001C
:100020000C9451000C9451000C9451000C9453000A
:100030000C9451000C9451000C9451000C945100FC
:100040000C9451000C9451000C946A000C945100D3
:100050000C9451000C9451000C9451000C945100DC
:100060000C9451000C94510011241FBECFEFD8E026
:10007000DEBFCDBF11E0A0E0B1E0E2E2F6E002C0F9
:1000800005900D92AC30B107D9F725E0ACE0B1E0B6
:1000900001C01D92A531B207E1F70E943E020C9407
:1000A0000F030C9400001F920F920FB60F921124B1
:1000B0008F939F9380910C0190910D01029719F4F9
:1000C00081E0809314019F918F910F900FBE0F904C
:1000D0001F9018951F920F920FB60F9211242F9315
:1000E0003F938F939F93AF93BF93EF93FF93809131
:1000F000C60020910C0130910D012115310521F030
:1001000021303105C1F077C08E3B09F074C01092E8
:100110000F0110920E0181E090E090930D01809309
:100120000C0185E191E090930101809300018091A1
:100130006F008D7F2DC0803C59F410920F011092FA
:100140000E0185E193E0909301018093000153C07B
:100150008E3D09F520910001309101012551334078
:10016000D1F480910E0190910F01A0E0B0E0809356
:10017000100190931101A0931201B093130182E03A
:1001800090E090930D0180930C0180916F0082604C
:1001900080936F0030C020910E0130910F01211526
:1001A000324048F520910E0130910F01E09100019D
:1001B000F0910101805320FD0AC020910E01309181
:1001C0000F0136952795E20FF31F880F0AC0209183
:1001D0000E0130910F0136952795E20FF31F9081A4
:1001E000892B808380910E0190910F01019690934D
:1001F0000F0180930E01FF91EF91BF91AF919F91FD
:100200008F913F912F910F900FBE0F901F901895D7
:100210000E944C010E9410010E94190178940895D7
:10022000109280008CE08093810082E080936F00C8
:1002300008958AB18C618AB95A988AB1806E8AB958
:100240005D980895823051F42BB181E090E001C0B7
:10025000880F6A95EAF7809582230AC08130D9F425
:100260002BB181E090E001C0880F6A95EAF7822BFC
:100270008BB92BB181E090E001C0880F4A95EAF775
:10028000922F982B9BB925E32A95F1F700009BB19B
:10029000809589238BB908951092C50089E18093D8
:1002A000C400E0ECF0E080818D7F808388E980935A
:1002B000C10086E08093C20008959091C00095FF30
:1002C000FCCF8093C6000895CF93DF93C82F64E6D8
:1002D0000E94C202D92F805D0E945D012AE08C2F0E
:1002E000622F0E94C2020E94C20280E3890F0E9414
:1002F0005D0180E38D0FDF91CF910C945D01EF9252
:10030000FF920F931F93CF93DF938C01CFE0D0E048
:10031000EE24E394F12CC7010C2E02C0880F991F24
:100320000A94E2F780239123892B11F081E301C025
:1003300080E30E945D01219770F7DF91CF911F91BB
:100340000F91FF90EF9008950F931F93CF938C011F
:10035000C0E0F801EC0FF11D8081882321F00E949C
:100360005D01CF5FF6CFCF911F910F9108954F920E
:100370005F926F927F928F929F92AF92BF92CF9235
:10038000DF92EF92FF920F931F93CF93DF93CDB73E
:10039000DEB76F970FB6F894DEBF0FBECDBF9E01DC
:1003A0002F5F3F4F7901611571058105910531F48A
:1003B00080E38983CC24C394D12C42C097FF0CC026
:1003C0002DE2298390958095709561957F4F8F4F91
:1003D0009F4F01E010E002C000E010E05701A00EC6
:1003E000B11E45012AE0422E512C612C712C68016E
:1003F0003FEFC31AD30AA30192010E94CE02605DAF
:10040000D4016D934D01B901CA01611571058105D2
:10041000910511F08601EBCFF701E00FF11F9F016D
:100420002E193F09C5018E199F098217930744F4BD
:10043000D5018C9190819D935D0180833197EFCFA1
:10044000F701EC0DFD1D1082C7010E94A4016F96FB
:100450000FB6F894DEBF0FBECDBFDF91CF911F91D5
:100460000F91FF90EF90DF90CF90BF90AF909F9053
:100470008F907F906F905F904F9008950E94080139
:1004800082E390E0909389008093880080910C0132
:1004900090910D010297D1F7809114018823B1F357
:1004A0001092140180E090E0DC0140911001509125
:1004B000110160911201709113016C017D012FEF08
:1004C000C21AD20AE20AF20A7695679557954795BD
:1004D00084179507A607B70780F4FC01EB5EFE4F73
:1004E000608170E080E090E00E94B70182E091E0DE
:1004F0000E94A401D701C601D8CF88E091E00E94F4
:10050000A40180E090E0DC014091100150911101C4
:1005100060911201709113016C017D012FEFC21ADD
:10052000D20AE20AF20A769567955795479584179D
:100530009507A607B70780F4FC01EB5EFC4F6081CE
:1005400070E080E090E00E94B70182E091E00E94BC
:10055000A401D701C601D8CF88E091E00E94A40190
:100560008FEF91EE24E0815090402040E1F700C0F1
:10057000000084E091E00E94A40110920D0110920D
:100580000C0184CF991B79E004C0991F961708F0DD
:10059000961B881F7A95C9F780950895052E97FBBD
:1005A0001EF400940E94E50257FD07D00E94ED0260
:1005B00007FC03D04EF40C94E5025095409530951D
:1005C00021953F4F4F4F5F4F0895909580957095BF
:1005D00061957F4F8F4F9F4F0895A1E21A2EAA1B5E
:1005E000BB1BFD010DC0AA1FBB1FEE1FFF1FA217E3
:1005F000B307E407F50720F0A21BB30BE40BF50BE0
:10060000661F771F881F991F1A9469F76095709568
:10061000809590959B01AC01BD01CF010895F894A0
:02062000FFCF0A
:0C06220015012000444F4E450D0A000059
:00000001FF
