:100000000C9434000C9451000C9451000C94510049
:100010000C9451000C9451000C9451000C9451001C
:100020000C9451000C9451000C9451000C9453000A
:100030000C9451000C9451000C9451000C945100FC
:100040000C9451000C9451000C9451000C945100EC
:100050000C9451000C9451000C9451000C945100DC
:100060000C9451000C94510011241FBECFEFD8E026
:10007000DEBFCDBF11E0A0E0B1E0E0EBF8E002C0F0
:1000800005900D92A632B107D9F721E0A6E2B1E0C2
:1000900001C01D92AF33B207E1F70E94CB020C946E
:1000A00056040C9400001F920F920FB60F92112469
:1000B0008F939F938091290190912A01892B61F060
:1000C00081E0809328018091290190912A01019774
:1000D00090932A0180932901809126019091270114
:1000E000019690932701809326019F918F910F9005
:1000F0000FBE0F901F9018955B9A8FE891E00197C3
:10010000F1F700C000005B988FE891E00197F1F7EC
:1001100000C000005E9A8FE891E00197F1F700C0FF
:1001200000005E988FE891E00197F1F700C00000B1
:1001300008951092C50089E18093C400E0ECF0E0DE
:1001400080818D7F808388E98093C10086E08093E1
:10015000C20008959091C00095FFFCCF8093C60027
:100160000895CF93DF93C82F64E60E946703D92FC9
:10017000805D0E94AA002AE08C2F622F0E946703F4
:100180000E94670380E3890F0E94AA0080E38D0F1D
:10019000DF91CF910C94AA00EF92FF920F931F93DF
:1001A000CF93DF938C01CFE0D0E0EE24E394F12CE9
:1001B000C7010C2E02C0880F991F0A94E2F7802312
:1001C0009123892B11F081E301C080E30E94AA00F2
:1001D000219770F7DF91CF911F910F91FF90EF90D2
:1001E00008950F931F93CF938C01C0E0F801EC0F9B
:1001F000F11D8081882321F00E94AA00CF5FF6CFF5
:10020000CF911F910F9108952F923F924F925F923D
:100210006F927F928F929F92AF92BF92CF92DF9216
:10022000EF92FF920F931F93CF93DF93CDB7DEB77B
:100230006D970FB6F894DEBF0FBECDBF29013A010E
:100240004B011C01A0E00E944A0439F480E3898339
:1002500021E030E03B8F2A8F68C0A0E00E944A0472
:1002600074F48DE28983822D0E94030429013A01EE
:100270004B011C0181E090E09F8B8E8B02C01F8A96
:100280001E8AA1E0B0E0AC0FBD1FEE89FF89AE0F62
:10029000BF1FB98FA88FBD8FAC8F8E899F890196A4
:1002A0009B8F8A8F8AE0A82EB12CC12CD12CE12CF7
:1002B000F12C00E010E09201A301B401C1010E9401
:1002C0007303205DAC8DBD8D2D93BD8FAC8F9201DE
:1002D000A301B401C1010E94750329013A014B0138
:1002E0001C01A0E00E944A0429F02A8D3B8D3F8B1F
:1002F0002E8BD3CF9E012F5F3F4FEE89FF89E20FF8
:10030000F31FAF01421B530B888D998D821B930BFA
:100310008417950754F4A88DB98D8C9190819D9385
:10032000B98FA88F80833197ECCFE1E0F0E0EC0F3C
:10033000FD1F2A8D3B8DE20FF31F1082CE01019627
:100340000E94F1006D960FB6F894DEBF0FBECDBFD0
:10035000DF91CF911F910F91FF90EF90DF90CF90A1
:10036000BF90AF909F908F907F906F905F904F90D5
:100370003F902F900895109280008CE08093810030
:1003800082E080936F008BE391E0909389008093EB
:100390008800089582E084BD95E095BD80936E004D
:1003A00087E087BD089588E48093B8001092B90073
:1003B00084E08093BC00089584EA8093BC0080911F
:1003C000BC0087FFFCCF089584E98093BC000895AA
:1003D0008093BB0084E88093BC008091BC0087FFC1
:1003E000FCCF089584EC8093BC008091BC0087FF13
:1003F000FCCF8091BB00089584E88093BC0080917D
:10040000BC0087FFFCCF8091BB0008950E94DC01F7
:100410008CE60E94E80187E00E94E80183E00E94E8
:10042000E80184E98093BC000895EF92FF920F9356
:100430001F93CF93DF93EC017B018A010E94DC01C3
:100440008CE60E94E8018EE00E94E8010E94DC0137
:100450008DE60E94E8010E94F20188830E94FC015F
:10046000F7018083288190E0922BF80191838083AB
:1004700084E98093BC00DF91CF911F910F91FF9091
:10048000EF900895FC01808191818B50924F9F7075
:100490000895FC0180819181845E944F9F7008953E
:1004A000813028E0920714F090510895811528EFCB
:1004B00092070CF4905F0895CF93C82F0E94DC013F
:1004C00080EE0E94E80181E001C0880FCA95EAF73A
:1004D0000E94E80184E98093BC008AE18A95F1F7E3
:1004E00000C0CF9108958AB18C618AB95A988AB1B7
:1004F000806E8AB95D9808955B9A8FE891E00197C4
:10050000F1F700C000005B988FE891E00197F1F7E8
:1005100000C0000008955C9A5B9A8FE891E0019713
:10052000F1F700C000005B988FE891E00197F1F7C8
:1005300000C0000008955F9820E030E028173907D8
:1005400089F05E9AEFE8F1E03197F1F700C0000022
:100550005E98EFE8F1E03197F1F700C000002F5FFF
:100560003F4FECCF08955F9A20E030E0281739071D
:1005700089F05E9AEFE8F1E03197F1F700C00000F2
:100580005E98EFE8F1E03197F1F700C000002F5FCF
:100590003F4FECCF08950E9499000E94D3010E9422
:1005A00073020E94BB017894C0E0D1E0D0932A018D
:1005B000C09329015C985F9A8091290190912A014A
:1005C000892BF1F0809128018823B1F31092280142
:1005D00080E091E00E94F1008090290190902A0132
:1005E000940140E050E060E070E080E090E00E9424
:1005F00004018EE091E00E94F1000E947C00DCCFBB
:100600002FEF83ED90E3215080409040E1F700C050
:1006100000008EE091E00E94F10081E191E00E94F3
:10062000F1008EE091E00E94F1002FEF83ED90E366
:10063000215080409040E1F700C00000D0932A0193
:10064000C09329015C9A5F988091290190912A01B9
:10065000892BF1F0809128018823B1F310922801B1
:1006600080E091E00E94F1008090290190902A01A1
:10067000940140E050E060E070E080E090E00E9493
:1006800004018EE091E00E94F1000E947C00DCCF2A
:100690002FEF83ED90E3215080409040E1F700C0C0
:1006A00000008EE091E00E94F10081E191E00E9463
:1006B000F1008EE091E00E94F1002FEF83ED90E3D6
:1006C000215080409040E1F700C000006FCF991B9F
:1006D00079E004C0991F961708F0961B881F7A9539
:1006E000C9F780950895689401C0E894F92FF12B1B
:1006F00012F00C94A703A0E0B0E0E1E8F3E00C9462
:100700001904092E059422F40E940304112392F483
:10071000F0E80F26FFEFE094F09400951095B09468
:10072000C094D094A194BF0ACF0ADF0AEF0AFF0A4F
:100730000F0B1F0B0E94B20307FC0E940304CDB7EE
:10074000DEB7ECE00C943504689401C0E8948F9215
:100750009F92CF93DF930E94B203DF91CF919F903E
:100760008F90089588249924F401E401B0E49F93C4
:10077000AA279A158B049C04ED05FE05CF05D0072A
:10078000A10798F4AD2FDC2FCF2FFE2FE92D982C49
:10079000892E982F872F762F652F542F432F322F96
:1007A0002227B85031F7BF9127C01B2EBF91BB271E
:1007B000220F331F441F551F661F771F881F991F65
:1007C000881C991CEE1FFF1FCC1FDD1FAA1FBB1F1B
:1007D0008A149B04EC05FD05CE05DF05A007B107D3
:1007E00048F08A189B08EC09FD09CE09DF09A00B27
:1007F000B10B21601A94E1F62EF49401AF01BE0111
:10080000CD01000C08956095709580959095309578
:100810004095509521953F4F4F4F5F4F6F4F7F4F02
:100820008F4F9F4F08952F923F924F925F926F92FA
:100830007F928F929F92AF92BF92CF92DF92EF9270
:10084000FF920F931F93CF93DF93CDB7DEB7CA1BF1
:10085000DB0B0FB6F894DEBF0FBECDBF09942A881C
:10086000398848885F846E847D848C849B84AA84C4
:10087000B984C884DF80EE80FD800C811B81AA8151
:10088000B981CE0FD11D0FB6F894DEBF0FBECDBF1C
:10089000ED0108950024A7FD00942A1730054005B6
:1008A000500560057005800590050895F894FFCF08
:1008B000737465707352656D61696E3A20000D0A3C
:1008C00000537769746368696E6720646972656351
:0608D00074696F6E7300F5
:00000001FF
